{
  "contractName": "DummyProofOfHumanity",
  "abi": [
    {
      "inputs": [],
      "stateMutability": "nonpayable",
      "type": "constructor"
    },
    {
      "inputs": [
        {
          "internalType": "contract IProofOfHumanity",
          "name": "_PoH",
          "type": "address"
        }
      ],
      "name": "changePoH",
      "outputs": [],
      "stateMutability": "nonpayable",
      "type": "function"
    },
    {
      "inputs": [
        {
          "internalType": "address",
          "name": "_governor",
          "type": "address"
        }
      ],
      "name": "changeGovernor",
      "outputs": [],
      "stateMutability": "nonpayable",
      "type": "function"
    },
    {
      "inputs": [
        {
          "internalType": "address",
          "name": "_submissionID",
          "type": "address"
        }
      ],
      "name": "isRegistered",
      "outputs": [
        {
          "internalType": "bool",
          "name": "",
          "type": "bool"
        }
      ],
      "stateMutability": "view",
      "type": "function",
      "constant": true
    }
  ],
  "bytecode": "0x608060405234801561001057600080fd5b50336000806101000a81548173ffffffffffffffffffffffffffffffffffffffff021916908373ffffffffffffffffffffffffffffffffffffffff160217905550610267806100606000396000f3fe608060405234801561001057600080fd5b50600436106100415760003560e01c8063c3c5a54714610046578063e4c0aaf414610076578063ee864d5514610092575b600080fd5b610060600480360381019061005b9190610137565b6100ae565b60405161006d9190610198565b60405180910390f35b610090600480360381019061008b9190610137565b610107565b005b6100ac60048036038101906100a79190610160565b61010a565b005b60008060009054906101000a900473ffffffffffffffffffffffffffffffffffffffff1673ffffffffffffffffffffffffffffffffffffffff168273ffffffffffffffffffffffffffffffffffffffff16149050919050565b50565b50565b60008135905061011c81610203565b92915050565b6000813590506101318161021a565b92915050565b60006020828403121561014957600080fd5b60006101578482850161010d565b91505092915050565b60006020828403121561017257600080fd5b600061018084828501610122565b91505092915050565b610192816101c5565b82525050565b60006020820190506101ad6000830184610189565b92915050565b60006101be826101e3565b9050919050565b60008115159050919050565b60006101dc826101b3565b9050919050565b600073ffffffffffffffffffffffffffffffffffffffff82169050919050565b61020c816101b3565b811461021757600080fd5b50565b610223816101d1565b811461022e57600080fd5b5056fea2646970667358221220aa72d061a5bf8359f9f2cc560b9dda653fda7b536ae27d4534f01d19e7ecf8dd64736f6c63430008000033",
  "immutableReferences": {},
  "source": "// SPDX-License-Identifier: MIT\r\npragma solidity 0.8.0;\r\n\r\nimport \"./IProofOfHumanity.sol\";\r\n\r\ncontract DummyProofOfHumanity is IProofOfHumanityProxy {\r\n\r\naddress _governor;\r\n    /** @dev Constructor.\r\n     */\r\n    constructor() {\r\n        _governor = msg.sender;\r\n    }\r\n    //constructor(IProofOfHumanity _PoH) virtual;\r\n\r\n    /** @dev Changes the address of the the related ProofOfHumanity contract.\r\n     *  @param _PoH The address of the new contract.\r\n     */\r\n    function changePoH(IProofOfHumanity _PoH) override external {}\r\n    \r\n    /** @dev Changes the address of the the governor.\r\n     *  @param _governor The address of the new governor.\r\n     */\r\n    function changeGovernor(address _governor) override external {}\r\n    \r\n\r\n    /** @dev Returns true if the submission is registered and not expired.\r\n     *  @param _submissionID The address of the submission.\r\n     *  @return Whether the submission is registered or not.\r\n     */\r\n    function isRegistered(address _submissionID) override public view virtual returns (bool) {\r\n        return _submissionID == _governor;\r\n    }\r\n}",
  "sourcePath": "E:/Code/Repos/JuanuMusic/humanitweet/humanitweet-contracts/contracts/DummyProofOfHumanity.sol",
  "compiler": {
    "name": "solc",
    "version": "0.8.0+commit.c7dfd78e.Emscripten.clang"
  },
  "schemaVersion": "3.3.4",
  "updatedAt": "2021-05-24T22:22:17.789Z",
  "networkType": "ethereum",
  "devdoc": {
    "kind": "dev",
    "methods": {
      "changeGovernor(address)": {
        "details": "Changes the address of the the governor.",
        "params": {
          "_governor": "The address of the new governor."
        }
      },
      "changePoH(address)": {
        "details": "Changes the address of the the related ProofOfHumanity contract.",
        "params": {
          "_PoH": "The address of the new contract."
        }
      },
      "constructor": {
        "details": "Constructor."
      },
      "isRegistered(address)": {
        "details": "Returns true if the submission is registered and not expired.",
        "params": {
          "_submissionID": "The address of the submission."
        },
        "returns": {
          "_0": "Whether the submission is registered or not."
        }
      }
    },
    "version": 1
  },
  "userdoc": {
    "kind": "user",
    "methods": {},
    "version": 1
  }
}