{
  "contractName": "Humanitweet",
  "abi": [
    {
      "inputs": [
        {
          "internalType": "address",
          "name": "pPohProxy",
          "type": "address"
        }
      ],
      "stateMutability": "nonpayable",
      "type": "constructor"
    },
    {
      "anonymous": false,
      "inputs": [
        {
          "indexed": true,
          "internalType": "address",
          "name": "owner",
          "type": "address"
        },
        {
          "indexed": true,
          "internalType": "address",
          "name": "approved",
          "type": "address"
        },
        {
          "indexed": true,
          "internalType": "uint256",
          "name": "tokenId",
          "type": "uint256"
        }
      ],
      "name": "Approval",
      "type": "event"
    },
    {
      "anonymous": false,
      "inputs": [
        {
          "indexed": true,
          "internalType": "address",
          "name": "owner",
          "type": "address"
        },
        {
          "indexed": true,
          "internalType": "address",
          "name": "operator",
          "type": "address"
        },
        {
          "indexed": false,
          "internalType": "bool",
          "name": "approved",
          "type": "bool"
        }
      ],
      "name": "ApprovalForAll",
      "type": "event"
    },
    {
      "anonymous": false,
      "inputs": [
        {
          "indexed": true,
          "internalType": "address",
          "name": "previousOwner",
          "type": "address"
        },
        {
          "indexed": true,
          "internalType": "address",
          "name": "newOwner",
          "type": "address"
        }
      ],
      "name": "OwnershipTransferred",
      "type": "event"
    },
    {
      "anonymous": false,
      "inputs": [
        {
          "indexed": true,
          "internalType": "address",
          "name": "from",
          "type": "address"
        },
        {
          "indexed": true,
          "internalType": "address",
          "name": "to",
          "type": "address"
        },
        {
          "indexed": true,
          "internalType": "uint256",
          "name": "tokenId",
          "type": "uint256"
        }
      ],
      "name": "Transfer",
      "type": "event"
    },
    {
      "inputs": [
        {
          "internalType": "address",
          "name": "to",
          "type": "address"
        },
        {
          "internalType": "uint256",
          "name": "tokenId",
          "type": "uint256"
        }
      ],
      "name": "approve",
      "outputs": [],
      "stateMutability": "nonpayable",
      "type": "function"
    },
    {
      "inputs": [
        {
          "internalType": "address",
          "name": "owner",
          "type": "address"
        }
      ],
      "name": "balanceOf",
      "outputs": [
        {
          "internalType": "uint256",
          "name": "",
          "type": "uint256"
        }
      ],
      "stateMutability": "view",
      "type": "function",
      "constant": true
    },
    {
      "inputs": [
        {
          "internalType": "uint256",
          "name": "tokenId",
          "type": "uint256"
        }
      ],
      "name": "getApproved",
      "outputs": [
        {
          "internalType": "address",
          "name": "",
          "type": "address"
        }
      ],
      "stateMutability": "view",
      "type": "function",
      "constant": true
    },
    {
      "inputs": [
        {
          "internalType": "address",
          "name": "owner",
          "type": "address"
        },
        {
          "internalType": "address",
          "name": "operator",
          "type": "address"
        }
      ],
      "name": "isApprovedForAll",
      "outputs": [
        {
          "internalType": "bool",
          "name": "",
          "type": "bool"
        }
      ],
      "stateMutability": "view",
      "type": "function",
      "constant": true
    },
    {
      "inputs": [],
      "name": "name",
      "outputs": [
        {
          "internalType": "string",
          "name": "",
          "type": "string"
        }
      ],
      "stateMutability": "view",
      "type": "function",
      "constant": true
    },
    {
      "inputs": [],
      "name": "owner",
      "outputs": [
        {
          "internalType": "address",
          "name": "",
          "type": "address"
        }
      ],
      "stateMutability": "view",
      "type": "function",
      "constant": true
    },
    {
      "inputs": [
        {
          "internalType": "uint256",
          "name": "tokenId",
          "type": "uint256"
        }
      ],
      "name": "ownerOf",
      "outputs": [
        {
          "internalType": "address",
          "name": "",
          "type": "address"
        }
      ],
      "stateMutability": "view",
      "type": "function",
      "constant": true
    },
    {
      "inputs": [],
      "name": "pohProxy",
      "outputs": [
        {
          "internalType": "contract IProofOfHumanityProxy",
          "name": "",
          "type": "address"
        }
      ],
      "stateMutability": "view",
      "type": "function",
      "constant": true
    },
    {
      "inputs": [],
      "name": "renounceOwnership",
      "outputs": [],
      "stateMutability": "nonpayable",
      "type": "function"
    },
    {
      "inputs": [
        {
          "internalType": "address",
          "name": "from",
          "type": "address"
        },
        {
          "internalType": "address",
          "name": "to",
          "type": "address"
        },
        {
          "internalType": "uint256",
          "name": "tokenId",
          "type": "uint256"
        }
      ],
      "name": "safeTransferFrom",
      "outputs": [],
      "stateMutability": "nonpayable",
      "type": "function"
    },
    {
      "inputs": [
        {
          "internalType": "address",
          "name": "from",
          "type": "address"
        },
        {
          "internalType": "address",
          "name": "to",
          "type": "address"
        },
        {
          "internalType": "uint256",
          "name": "tokenId",
          "type": "uint256"
        },
        {
          "internalType": "bytes",
          "name": "_data",
          "type": "bytes"
        }
      ],
      "name": "safeTransferFrom",
      "outputs": [],
      "stateMutability": "nonpayable",
      "type": "function"
    },
    {
      "inputs": [
        {
          "internalType": "address",
          "name": "operator",
          "type": "address"
        },
        {
          "internalType": "bool",
          "name": "approved",
          "type": "bool"
        }
      ],
      "name": "setApprovalForAll",
      "outputs": [],
      "stateMutability": "nonpayable",
      "type": "function"
    },
    {
      "inputs": [
        {
          "internalType": "bytes4",
          "name": "interfaceId",
          "type": "bytes4"
        }
      ],
      "name": "supportsInterface",
      "outputs": [
        {
          "internalType": "bool",
          "name": "",
          "type": "bool"
        }
      ],
      "stateMutability": "view",
      "type": "function",
      "constant": true
    },
    {
      "inputs": [],
      "name": "symbol",
      "outputs": [
        {
          "internalType": "string",
          "name": "",
          "type": "string"
        }
      ],
      "stateMutability": "view",
      "type": "function",
      "constant": true
    },
    {
      "inputs": [],
      "name": "tokenCounter",
      "outputs": [
        {
          "internalType": "uint256",
          "name": "",
          "type": "uint256"
        }
      ],
      "stateMutability": "view",
      "type": "function",
      "constant": true
    },
    {
      "inputs": [
        {
          "internalType": "address",
          "name": "from",
          "type": "address"
        },
        {
          "internalType": "address",
          "name": "to",
          "type": "address"
        },
        {
          "internalType": "uint256",
          "name": "tokenId",
          "type": "uint256"
        }
      ],
      "name": "transferFrom",
      "outputs": [],
      "stateMutability": "nonpayable",
      "type": "function"
    },
    {
      "inputs": [
        {
          "internalType": "address",
          "name": "newOwner",
          "type": "address"
        }
      ],
      "name": "transferOwnership",
      "outputs": [],
      "stateMutability": "nonpayable",
      "type": "function"
    },
    {
      "inputs": [
        {
          "internalType": "string",
          "name": "newTokenURI",
          "type": "string"
        }
      ],
      "name": "publishHumanitweet",
      "outputs": [
        {
          "internalType": "uint256",
          "name": "",
          "type": "uint256"
        }
      ],
      "stateMutability": "nonpayable",
      "type": "function"
    },
    {
      "inputs": [
        {
          "internalType": "string",
          "name": "baseURI_",
          "type": "string"
        }
      ],
      "name": "setBaseURI",
      "outputs": [],
      "stateMutability": "nonpayable",
      "type": "function"
    },
    {
      "inputs": [
        {
          "internalType": "uint256",
          "name": "tokenId",
          "type": "uint256"
        }
      ],
      "name": "tokenURI",
      "outputs": [
        {
          "internalType": "string",
          "name": "",
          "type": "string"
        }
      ],
      "stateMutability": "view",
      "type": "function",
      "constant": true
    }
  ],
  "bytecode": "0x60806040523480156200001157600080fd5b5060405162003574380380620035748339818101604052810190620000379190620002a7565b6040518060400160405280600b81526020017f48756d616e6974776565740000000000000000000000000000000000000000008152506040518060400160405280600481526020017f48545754000000000000000000000000000000000000000000000000000000008152508160009080519060200190620000bb929190620001e0565b508060019080519060200190620000d4929190620001e0565b5050506000620000e9620001d860201b60201c565b905080600660006101000a81548173ffffffffffffffffffffffffffffffffffffffff021916908373ffffffffffffffffffffffffffffffffffffffff1602179055508073ffffffffffffffffffffffffffffffffffffffff16600073ffffffffffffffffffffffffffffffffffffffff167f8be0079c531659141344cd1fd0a4f28419497f9722a3daafe3b4186f6b6457e060405160405180910390a3506000600a8190555080600860006101000a81548173ffffffffffffffffffffffffffffffffffffffff021916908373ffffffffffffffffffffffffffffffffffffffff1602179055505062000386565b600033905090565b828054620001ee9062000307565b90600052602060002090601f0160209004810192826200021257600085556200025e565b82601f106200022d57805160ff19168380011785556200025e565b828001600101855582156200025e579182015b828111156200025d57825182559160200191906001019062000240565b5b5090506200026d919062000271565b5090565b5b808211156200028c57600081600090555060010162000272565b5090565b600081519050620002a1816200036c565b92915050565b600060208284031215620002ba57600080fd5b6000620002ca8482850162000290565b91505092915050565b6000620002e082620002e7565b9050919050565b600073ffffffffffffffffffffffffffffffffffffffff82169050919050565b600060028204905060018216806200032057607f821691505b602082108114156200033757620003366200033d565b5b50919050565b7f4e487b7100000000000000000000000000000000000000000000000000000000600052602260045260246000fd5b6200037781620002d3565b81146200038357600080fd5b50565b6131de80620003966000396000f3fe608060405234801561001057600080fd5b506004361061012c5760003560e01c806370a08231116100ad578063b88d4fde11610071578063b88d4fde1461032f578063c87b56dd1461034b578063d082e3811461037b578063e985e9c514610399578063f2fde38b146103c95761012c565b806370a082311461029d578063715018a6146102cd5780638da5cb5b146102d757806395d89b41146102f5578063a22cb465146103135761012c565b806323b872dd116100f457806323b872dd146101fb57806342842e0e146102175780635031368f1461023357806355f804b3146102515780636352211e1461026d5761012c565b806301ffc9a71461013157806306fdde0314610161578063081812fc1461017f578063095ea7b3146101af57806323473922146101cb575b600080fd5b61014b600480360381019061014691906121fd565b6103e5565b6040516101589190612ab7565b60405180910390f35b6101696104c7565b6040516101769190612aed565b60405180910390f35b61019960048036038101906101949190612290565b610559565b6040516101a69190612a50565b60405180910390f35b6101c960048036038101906101c49190612198565b6105de565b005b6101e560048036038101906101e0919061224f565b6106f6565b6040516101f29190612d4f565b60405180910390f35b61021560048036038101906102109190612092565b61082b565b005b610231600480360381019061022c9190612092565b61088b565b005b61023b6108ab565b6040516102489190612ad2565b60405180910390f35b61026b6004803603810190610266919061224f565b6108d1565b005b61028760048036038101906102829190612290565b610967565b6040516102949190612a50565b60405180910390f35b6102b760048036038101906102b2919061202d565b610a19565b6040516102c49190612d4f565b60405180910390f35b6102d5610ad1565b005b6102df610c0e565b6040516102ec9190612a50565b60405180910390f35b6102fd610c38565b60405161030a9190612aed565b60405180910390f35b61032d6004803603810190610328919061215c565b610cca565b005b610349600480360381019061034491906120e1565b610e4b565b005b61036560048036038101906103609190612290565b610ead565b6040516103729190612aed565b60405180910390f35b610383611020565b6040516103909190612d4f565b60405180910390f35b6103b360048036038101906103ae9190612056565b611026565b6040516103c09190612ab7565b60405180910390f35b6103e360048036038101906103de919061202d565b6110ba565b005b60007f80ac58cd000000000000000000000000000000000000000000000000000000007bffffffffffffffffffffffffffffffffffffffffffffffffffffffff1916827bffffffffffffffffffffffffffffffffffffffffffffffffffffffff191614806104b057507f5b5e139f000000000000000000000000000000000000000000000000000000007bffffffffffffffffffffffffffffffffffffffffffffffffffffffff1916827bffffffffffffffffffffffffffffffffffffffffffffffffffffffff1916145b806104c057506104bf82611266565b5b9050919050565b6060600080546104d690612fd3565b80601f016020809104026020016040519081016040528092919081815260200182805461050290612fd3565b801561054f5780601f106105245761010080835404028352916020019161054f565b820191906000526020600020905b81548152906001019060200180831161053257829003601f168201915b5050505050905090565b6000610564826112d0565b6105a3576040517f08c379a000000000000000000000000000000000000000000000000000000000815260040161059a90612c6f565b60405180910390fd5b6004600083815260200190815260200160002060009054906101000a900473ffffffffffffffffffffffffffffffffffffffff169050919050565b60006105e982610967565b90508073ffffffffffffffffffffffffffffffffffffffff168373ffffffffffffffffffffffffffffffffffffffff16141561065a576040517f08c379a000000000000000000000000000000000000000000000000000000000815260040161065190612d0f565b60405180910390fd5b8073ffffffffffffffffffffffffffffffffffffffff1661067961133c565b73ffffffffffffffffffffffffffffffffffffffff1614806106a857506106a7816106a261133c565b611026565b5b6106e7576040517f08c379a00000000000000000000000000000000000000000000000000000000081526004016106de90612bef565b60405180910390fd5b6106f18383611344565b505050565b600061070061133c565b600860009054906101000a900473ffffffffffffffffffffffffffffffffffffffff1673ffffffffffffffffffffffffffffffffffffffff1663c3c5a547826040518263ffffffff1660e01b815260040161075b9190612a50565b60206040518083038186803b15801561077357600080fd5b505afa158015610787573d6000803e3d6000fd5b505050506040513d601f19601f820116820180604052508101906107ab91906121d4565b6107ea576040517f08c379a00000000000000000000000000000000000000000000000000000000081526004016107e190612bcf565b60405180910390fd5b6000600a5490506108026107fc61133c565b826113fd565b61080c818561141b565b6001600a5461081b9190612e3e565b600a819055508092505050919050565b61083c61083661133c565b8261148f565b61087b576040517f08c379a000000000000000000000000000000000000000000000000000000000815260040161087290612d2f565b60405180910390fd5b61088683838361156d565b505050565b6108a683838360405180602001604052806000815250610e4b565b505050565b600860009054906101000a900473ffffffffffffffffffffffffffffffffffffffff1681565b6108d961133c565b73ffffffffffffffffffffffffffffffffffffffff166108f7610c0e565b73ffffffffffffffffffffffffffffffffffffffff161461094d576040517f08c379a000000000000000000000000000000000000000000000000000000000815260040161094490612caf565b60405180910390fd5b8060099080519060200190610963929190611e3c565b5050565b6000806002600084815260200190815260200160002060009054906101000a900473ffffffffffffffffffffffffffffffffffffffff169050600073ffffffffffffffffffffffffffffffffffffffff168173ffffffffffffffffffffffffffffffffffffffff161415610a10576040517f08c379a0000000000000000000000000000000000000000000000000000000008152600401610a0790612c2f565b60405180910390fd5b80915050919050565b60008073ffffffffffffffffffffffffffffffffffffffff168273ffffffffffffffffffffffffffffffffffffffff161415610a8a576040517f08c379a0000000000000000000000000000000000000000000000000000000008152600401610a8190612c0f565b60405180910390fd5b600360008373ffffffffffffffffffffffffffffffffffffffff1673ffffffffffffffffffffffffffffffffffffffff168152602001908152602001600020549050919050565b610ad961133c565b73ffffffffffffffffffffffffffffffffffffffff16610af7610c0e565b73ffffffffffffffffffffffffffffffffffffffff1614610b4d576040517f08c379a0000000000000000000000000000000000000000000000000000000008152600401610b4490612caf565b60405180910390fd5b600073ffffffffffffffffffffffffffffffffffffffff16600660009054906101000a900473ffffffffffffffffffffffffffffffffffffffff1673ffffffffffffffffffffffffffffffffffffffff167f8be0079c531659141344cd1fd0a4f28419497f9722a3daafe3b4186f6b6457e060405160405180910390a36000600660006101000a81548173ffffffffffffffffffffffffffffffffffffffff021916908373ffffffffffffffffffffffffffffffffffffffff160217905550565b6000600660009054906101000a900473ffffffffffffffffffffffffffffffffffffffff16905090565b606060018054610c4790612fd3565b80601f0160208091040260200160405190810160405280929190818152602001828054610c7390612fd3565b8015610cc05780601f10610c9557610100808354040283529160200191610cc0565b820191906000526020600020905b815481529060010190602001808311610ca357829003601f168201915b5050505050905090565b610cd261133c565b73ffffffffffffffffffffffffffffffffffffffff168273ffffffffffffffffffffffffffffffffffffffff161415610d40576040517f08c379a0000000000000000000000000000000000000000000000000000000008152600401610d3790612b8f565b60405180910390fd5b8060056000610d4d61133c565b73ffffffffffffffffffffffffffffffffffffffff1673ffffffffffffffffffffffffffffffffffffffff16815260200190815260200160002060008473ffffffffffffffffffffffffffffffffffffffff1673ffffffffffffffffffffffffffffffffffffffff16815260200190815260200160002060006101000a81548160ff0219169083151502179055508173ffffffffffffffffffffffffffffffffffffffff16610dfa61133c565b73ffffffffffffffffffffffffffffffffffffffff167f17307eab39ab6107e8899845ad3d59bd9653f200f220920489ca2b5937696c3183604051610e3f9190612ab7565b60405180910390a35050565b610e5c610e5661133c565b8361148f565b610e9b576040517f08c379a0000000000000000000000000000000000000000000000000000000008152600401610e9290612d2f565b60405180910390fd5b610ea7848484846117c9565b50505050565b6060610eb8826112d0565b610ef7576040517f08c379a0000000000000000000000000000000000000000000000000000000008152600401610eee90612cef565b60405180910390fd5b6000600760008481526020019081526020016000208054610f1790612fd3565b80601f0160208091040260200160405190810160405280929190818152602001828054610f4390612fd3565b8015610f905780601f10610f6557610100808354040283529160200191610f90565b820191906000526020600020905b815481529060010190602001808311610f7357829003601f168201915b505050505090506000610fa1611825565b9050600081511415610fb757819250505061101b565b600082511115610fec578082604051602001610fd4929190612a2c565b6040516020818303038152906040529250505061101b565b80610ff6856118b7565b604051602001611007929190612a2c565b604051602081830303815290604052925050505b919050565b600a5481565b6000600560008473ffffffffffffffffffffffffffffffffffffffff1673ffffffffffffffffffffffffffffffffffffffff16815260200190815260200160002060008373ffffffffffffffffffffffffffffffffffffffff1673ffffffffffffffffffffffffffffffffffffffff16815260200190815260200160002060009054906101000a900460ff16905092915050565b6110c261133c565b73ffffffffffffffffffffffffffffffffffffffff166110e0610c0e565b73ffffffffffffffffffffffffffffffffffffffff1614611136576040517f08c379a000000000000000000000000000000000000000000000000000000000815260040161112d90612caf565b60405180910390fd5b600073ffffffffffffffffffffffffffffffffffffffff168173ffffffffffffffffffffffffffffffffffffffff1614156111a6576040517f08c379a000000000000000000000000000000000000000000000000000000000815260040161119d90612b2f565b60405180910390fd5b8073ffffffffffffffffffffffffffffffffffffffff16600660009054906101000a900473ffffffffffffffffffffffffffffffffffffffff1673ffffffffffffffffffffffffffffffffffffffff167f8be0079c531659141344cd1fd0a4f28419497f9722a3daafe3b4186f6b6457e060405160405180910390a380600660006101000a81548173ffffffffffffffffffffffffffffffffffffffff021916908373ffffffffffffffffffffffffffffffffffffffff16021790555050565b60007f01ffc9a7000000000000000000000000000000000000000000000000000000007bffffffffffffffffffffffffffffffffffffffffffffffffffffffff1916827bffffffffffffffffffffffffffffffffffffffffffffffffffffffff1916149050919050565b60008073ffffffffffffffffffffffffffffffffffffffff166002600084815260200190815260200160002060009054906101000a900473ffffffffffffffffffffffffffffffffffffffff1673ffffffffffffffffffffffffffffffffffffffff1614159050919050565b600033905090565b816004600083815260200190815260200160002060006101000a81548173ffffffffffffffffffffffffffffffffffffffff021916908373ffffffffffffffffffffffffffffffffffffffff160217905550808273ffffffffffffffffffffffffffffffffffffffff166113b783610967565b73ffffffffffffffffffffffffffffffffffffffff167f8c5be1e5ebec7d5bd14f71427d1e84f3dd0314c0f7b2291e5b200ac8c7c3b92560405160405180910390a45050565b611417828260405180602001604052806000815250611a64565b5050565b611424826112d0565b611463576040517f08c379a000000000000000000000000000000000000000000000000000000000815260040161145a90612c8f565b60405180910390fd5b8060076000848152602001908152602001600020908051906020019061148a929190611e3c565b505050565b600061149a826112d0565b6114d9576040517f08c379a00000000000000000000000000000000000000000000000000000000081526004016114d090612baf565b60405180910390fd5b60006114e483610967565b90508073ffffffffffffffffffffffffffffffffffffffff168473ffffffffffffffffffffffffffffffffffffffff16148061155357508373ffffffffffffffffffffffffffffffffffffffff1661153b84610559565b73ffffffffffffffffffffffffffffffffffffffff16145b8061156457506115638185611026565b5b91505092915050565b8273ffffffffffffffffffffffffffffffffffffffff1661158d82610967565b73ffffffffffffffffffffffffffffffffffffffff16146115e3576040517f08c379a00000000000000000000000000000000000000000000000000000000081526004016115da90612ccf565b60405180910390fd5b600073ffffffffffffffffffffffffffffffffffffffff168273ffffffffffffffffffffffffffffffffffffffff161415611653576040517f08c379a000000000000000000000000000000000000000000000000000000000815260040161164a90612b6f565b60405180910390fd5b61165e838383611abf565b611669600082611344565b6001600360008573ffffffffffffffffffffffffffffffffffffffff1673ffffffffffffffffffffffffffffffffffffffff16815260200190815260200160002060008282546116b99190612ec5565b925050819055506001600360008473ffffffffffffffffffffffffffffffffffffffff1673ffffffffffffffffffffffffffffffffffffffff16815260200190815260200160002060008282546117109190612e3e565b92505081905550816002600083815260200190815260200160002060006101000a81548173ffffffffffffffffffffffffffffffffffffffff021916908373ffffffffffffffffffffffffffffffffffffffff160217905550808273ffffffffffffffffffffffffffffffffffffffff168473ffffffffffffffffffffffffffffffffffffffff167fddf252ad1be2c89b69c2b068fc378daa952ba7f163c4a11628f55a4df523b3ef60405160405180910390a4505050565b6117d484848461156d565b6117e084848484611ac4565b61181f576040517f08c379a000000000000000000000000000000000000000000000000000000000815260040161181690612b0f565b60405180910390fd5b50505050565b60606009805461183490612fd3565b80601f016020809104026020016040519081016040528092919081815260200182805461186090612fd3565b80156118ad5780601f10611882576101008083540402835291602001916118ad565b820191906000526020600020905b81548152906001019060200180831161189057829003601f168201915b5050505050905090565b606060008214156118ff576040518060400160405280600181526020017f30000000000000000000000000000000000000000000000000000000000000008152509050611a5f565b600082905060005b6000821461193157808061191a90613005565b915050600a8261192a9190612e94565b9150611907565b60008167ffffffffffffffff811115611973577f4e487b7100000000000000000000000000000000000000000000000000000000600052604160045260246000fd5b6040519080825280601f01601f1916602001820160405280156119a55781602001600182028036833780820191505090505b5090505b60008514611a58576001826119be9190612ec5565b9150600a856119cd919061304e565b60306119d99190612e3e565b60f81b818381518110611a15577f4e487b7100000000000000000000000000000000000000000000000000000000600052603260045260246000fd5b60200101907effffffffffffffffffffffffffffffffffffffffffffffffffffffffffffff1916908160001a905350600a85611a519190612e94565b94506119a9565b8093505050505b919050565b611a6e8383611c5b565b611a7b6000848484611ac4565b611aba576040517f08c379a0000000000000000000000000000000000000000000000000000000008152600401611ab190612b0f565b60405180910390fd5b505050565b505050565b6000611ae58473ffffffffffffffffffffffffffffffffffffffff16611e29565b15611c4e578373ffffffffffffffffffffffffffffffffffffffff1663150b7a02611b0e61133c565b8786866040518563ffffffff1660e01b8152600401611b309493929190612a6b565b602060405180830381600087803b158015611b4a57600080fd5b505af1925050508015611b7b57506040513d601f19601f82011682018060405250810190611b789190612226565b60015b611bfe573d8060008114611bab576040519150601f19603f3d011682016040523d82523d6000602084013e611bb0565b606091505b50600081511415611bf6576040517f08c379a0000000000000000000000000000000000000000000000000000000008152600401611bed90612b0f565b60405180910390fd5b805181602001fd5b63150b7a0260e01b7bffffffffffffffffffffffffffffffffffffffffffffffffffffffff1916817bffffffffffffffffffffffffffffffffffffffffffffffffffffffff191614915050611c53565b600190505b949350505050565b600073ffffffffffffffffffffffffffffffffffffffff168273ffffffffffffffffffffffffffffffffffffffff161415611ccb576040517f08c379a0000000000000000000000000000000000000000000000000000000008152600401611cc290612c4f565b60405180910390fd5b611cd4816112d0565b15611d14576040517f08c379a0000000000000000000000000000000000000000000000000000000008152600401611d0b90612b4f565b60405180910390fd5b611d2060008383611abf565b6001600360008473ffffffffffffffffffffffffffffffffffffffff1673ffffffffffffffffffffffffffffffffffffffff1681526020019081526020016000206000828254611d709190612e3e565b92505081905550816002600083815260200190815260200160002060006101000a81548173ffffffffffffffffffffffffffffffffffffffff021916908373ffffffffffffffffffffffffffffffffffffffff160217905550808273ffffffffffffffffffffffffffffffffffffffff16600073ffffffffffffffffffffffffffffffffffffffff167fddf252ad1be2c89b69c2b068fc378daa952ba7f163c4a11628f55a4df523b3ef60405160405180910390a45050565b600080823b905060008111915050919050565b828054611e4890612fd3565b90600052602060002090601f016020900481019282611e6a5760008555611eb1565b82601f10611e8357805160ff1916838001178555611eb1565b82800160010185558215611eb1579182015b82811115611eb0578251825591602001919060010190611e95565b5b509050611ebe9190611ec2565b5090565b5b80821115611edb576000816000905550600101611ec3565b5090565b6000611ef2611eed84612d9b565b612d6a565b905082815260208101848484011115611f0a57600080fd5b611f15848285612f91565b509392505050565b6000611f30611f2b84612dcb565b612d6a565b905082815260208101848484011115611f4857600080fd5b611f53848285612f91565b509392505050565b600081359050611f6a8161314c565b92915050565b600081359050611f7f81613163565b92915050565b600081519050611f9481613163565b92915050565b600081359050611fa98161317a565b92915050565b600081519050611fbe8161317a565b92915050565b600082601f830112611fd557600080fd5b8135611fe5848260208601611edf565b91505092915050565b600082601f830112611fff57600080fd5b813561200f848260208601611f1d565b91505092915050565b60008135905061202781613191565b92915050565b60006020828403121561203f57600080fd5b600061204d84828501611f5b565b91505092915050565b6000806040838503121561206957600080fd5b600061207785828601611f5b565b925050602061208885828601611f5b565b9150509250929050565b6000806000606084860312156120a757600080fd5b60006120b586828701611f5b565b93505060206120c686828701611f5b565b92505060406120d786828701612018565b9150509250925092565b600080600080608085870312156120f757600080fd5b600061210587828801611f5b565b945050602061211687828801611f5b565b935050604061212787828801612018565b925050606085013567ffffffffffffffff81111561214457600080fd5b61215087828801611fc4565b91505092959194509250565b6000806040838503121561216f57600080fd5b600061217d85828601611f5b565b925050602061218e85828601611f70565b9150509250929050565b600080604083850312156121ab57600080fd5b60006121b985828601611f5b565b92505060206121ca85828601612018565b9150509250929050565b6000602082840312156121e657600080fd5b60006121f484828501611f85565b91505092915050565b60006020828403121561220f57600080fd5b600061221d84828501611f9a565b91505092915050565b60006020828403121561223857600080fd5b600061224684828501611faf565b91505092915050565b60006020828403121561226157600080fd5b600082013567ffffffffffffffff81111561227b57600080fd5b61228784828501611fee565b91505092915050565b6000602082840312156122a257600080fd5b60006122b084828501612018565b91505092915050565b6122c281612ef9565b82525050565b6122d181612f0b565b82525050565b60006122e282612dfb565b6122ec8185612e11565b93506122fc818560208601612fa0565b6123058161313b565b840191505092915050565b61231981612f6d565b82525050565b600061232a82612e06565b6123348185612e22565b9350612344818560208601612fa0565b61234d8161313b565b840191505092915050565b600061236382612e06565b61236d8185612e33565b935061237d818560208601612fa0565b80840191505092915050565b6000612396603283612e22565b91507f4552433732313a207472616e7366657220746f206e6f6e20455243373231526560008301527f63656976657220696d706c656d656e74657200000000000000000000000000006020830152604082019050919050565b60006123fc602683612e22565b91507f4f776e61626c653a206e6577206f776e657220697320746865207a65726f206160008301527f64647265737300000000000000000000000000000000000000000000000000006020830152604082019050919050565b6000612462601c83612e22565b91507f4552433732313a20746f6b656e20616c7265616479206d696e746564000000006000830152602082019050919050565b60006124a2602483612e22565b91507f4552433732313a207472616e7366657220746f20746865207a65726f2061646460008301527f72657373000000000000000000000000000000000000000000000000000000006020830152604082019050919050565b6000612508601983612e22565b91507f4552433732313a20617070726f766520746f2063616c6c6572000000000000006000830152602082019050919050565b6000612548602c83612e22565b91507f4552433732313a206f70657261746f7220717565727920666f72206e6f6e657860008301527f697374656e7420746f6b656e00000000000000000000000000000000000000006020830152604082019050919050565b60006125ae602883612e22565b91507f55736572206e6f742072656769737465726564206f6e2050726f6f66206f662060008301527f48756d616e6974790000000000000000000000000000000000000000000000006020830152604082019050919050565b6000612614603883612e22565b91507f4552433732313a20617070726f76652063616c6c6572206973206e6f74206f7760008301527f6e6572206e6f7220617070726f76656420666f7220616c6c00000000000000006020830152604082019050919050565b600061267a602a83612e22565b91507f4552433732313a2062616c616e636520717565727920666f7220746865207a6560008301527f726f2061646472657373000000000000000000000000000000000000000000006020830152604082019050919050565b60006126e0602983612e22565b91507f4552433732313a206f776e657220717565727920666f72206e6f6e657869737460008301527f656e7420746f6b656e00000000000000000000000000000000000000000000006020830152604082019050919050565b6000612746602083612e22565b91507f4552433732313a206d696e7420746f20746865207a65726f20616464726573736000830152602082019050919050565b6000612786602c83612e22565b91507f4552433732313a20617070726f76656420717565727920666f72206e6f6e657860008301527f697374656e7420746f6b656e00000000000000000000000000000000000000006020830152604082019050919050565b60006127ec602c83612e22565b91507f4552433732314d657461646174613a2055524920736574206f66206e6f6e657860008301527f697374656e7420746f6b656e00000000000000000000000000000000000000006020830152604082019050919050565b6000612852602083612e22565b91507f4f776e61626c653a2063616c6c6572206973206e6f7420746865206f776e65726000830152602082019050919050565b6000612892602983612e22565b91507f4552433732313a207472616e73666572206f6620746f6b656e2074686174206960008301527f73206e6f74206f776e00000000000000000000000000000000000000000000006020830152604082019050919050565b60006128f8602f83612e22565b91507f4552433732314d657461646174613a2055524920717565727920666f72206e6f60008301527f6e6578697374656e7420746f6b656e00000000000000000000000000000000006020830152604082019050919050565b600061295e602183612e22565b91507f4552433732313a20617070726f76616c20746f2063757272656e74206f776e6560008301527f72000000000000000000000000000000000000000000000000000000000000006020830152604082019050919050565b60006129c4603183612e22565b91507f4552433732313a207472616e736665722063616c6c6572206973206e6f74206f60008301527f776e6572206e6f7220617070726f7665640000000000000000000000000000006020830152604082019050919050565b612a2681612f63565b82525050565b6000612a388285612358565b9150612a448284612358565b91508190509392505050565b6000602082019050612a6560008301846122b9565b92915050565b6000608082019050612a8060008301876122b9565b612a8d60208301866122b9565b612a9a6040830185612a1d565b8181036060830152612aac81846122d7565b905095945050505050565b6000602082019050612acc60008301846122c8565b92915050565b6000602082019050612ae76000830184612310565b92915050565b60006020820190508181036000830152612b07818461231f565b905092915050565b60006020820190508181036000830152612b2881612389565b9050919050565b60006020820190508181036000830152612b48816123ef565b9050919050565b60006020820190508181036000830152612b6881612455565b9050919050565b60006020820190508181036000830152612b8881612495565b9050919050565b60006020820190508181036000830152612ba8816124fb565b9050919050565b60006020820190508181036000830152612bc88161253b565b9050919050565b60006020820190508181036000830152612be8816125a1565b9050919050565b60006020820190508181036000830152612c0881612607565b9050919050565b60006020820190508181036000830152612c288161266d565b9050919050565b60006020820190508181036000830152612c48816126d3565b9050919050565b60006020820190508181036000830152612c6881612739565b9050919050565b60006020820190508181036000830152612c8881612779565b9050919050565b60006020820190508181036000830152612ca8816127df565b9050919050565b60006020820190508181036000830152612cc881612845565b9050919050565b60006020820190508181036000830152612ce881612885565b9050919050565b60006020820190508181036000830152612d08816128eb565b9050919050565b60006020820190508181036000830152612d2881612951565b9050919050565b60006020820190508181036000830152612d48816129b7565b9050919050565b6000602082019050612d646000830184612a1d565b92915050565b6000604051905081810181811067ffffffffffffffff82111715612d9157612d9061310c565b5b8060405250919050565b600067ffffffffffffffff821115612db657612db561310c565b5b601f19601f8301169050602081019050919050565b600067ffffffffffffffff821115612de657612de561310c565b5b601f19601f8301169050602081019050919050565b600081519050919050565b600081519050919050565b600082825260208201905092915050565b600082825260208201905092915050565b600081905092915050565b6000612e4982612f63565b9150612e5483612f63565b9250827fffffffffffffffffffffffffffffffffffffffffffffffffffffffffffffffff03821115612e8957612e8861307f565b5b828201905092915050565b6000612e9f82612f63565b9150612eaa83612f63565b925082612eba57612eb96130ae565b5b828204905092915050565b6000612ed082612f63565b9150612edb83612f63565b925082821015612eee57612eed61307f565b5b828203905092915050565b6000612f0482612f43565b9050919050565b60008115159050919050565b60007fffffffff0000000000000000000000000000000000000000000000000000000082169050919050565b600073ffffffffffffffffffffffffffffffffffffffff82169050919050565b6000819050919050565b6000612f7882612f7f565b9050919050565b6000612f8a82612f43565b9050919050565b82818337600083830152505050565b60005b83811015612fbe578082015181840152602081019050612fa3565b83811115612fcd576000848401525b50505050565b60006002820490506001821680612feb57607f821691505b60208210811415612fff57612ffe6130dd565b5b50919050565b600061301082612f63565b91507fffffffffffffffffffffffffffffffffffffffffffffffffffffffffffffffff8214156130435761304261307f565b5b600182019050919050565b600061305982612f63565b915061306483612f63565b925082613074576130736130ae565b5b828206905092915050565b7f4e487b7100000000000000000000000000000000000000000000000000000000600052601160045260246000fd5b7f4e487b7100000000000000000000000000000000000000000000000000000000600052601260045260246000fd5b7f4e487b7100000000000000000000000000000000000000000000000000000000600052602260045260246000fd5b7f4e487b7100000000000000000000000000000000000000000000000000000000600052604160045260246000fd5b6000601f19601f8301169050919050565b61315581612ef9565b811461316057600080fd5b50565b61316c81612f0b565b811461317757600080fd5b50565b61318381612f17565b811461318e57600080fd5b50565b61319a81612f63565b81146131a557600080fd5b5056fea2646970667358221220c6d585db9c76a4e9c98af44b83e3975d982a4e4cdd96c80684e63ad5df022f7964736f6c63430008000033",
  "immutableReferences": {},
  "source": "// SPDX-License-Identifier: MIT\r\npragma solidity 0.8.0;\r\n\r\nimport \"@openzeppelin/contracts/token/ERC721/ERC721.sol\";\r\nimport \"@openzeppelin/contracts/access/Ownable.sol\";\r\nimport \"./IProofOfHumanity.sol\";\r\n\r\ncontract Humanitweet is ERC721, Ownable {\r\n\r\n    using Strings for uint256;\r\n    \r\n    // Optional mapping for token URIs\r\n    mapping (uint256 => string) private _tokenURIs;\r\n\r\n    IProofOfHumanityProxy public pohProxy;\r\n    // Base URI\r\n    string private _baseURIextended;\r\n\r\n    uint256 public tokenCounter;\r\n\r\n    modifier isHuman(address _submission) {\r\n        require(pohProxy.isRegistered(_submission), \"User not registered on Proof of Humanity\");\r\n        _;\r\n    }\r\n\r\n    constructor(address pPohProxy) public ERC721(\"Humanitweet\", \"HTWT\") {\r\n        tokenCounter = 0;\r\n        pohProxy = IProofOfHumanityProxy(pPohProxy);\r\n    }\r\n\r\n    function publishHumanitweet(string memory newTokenURI) public isHuman(_msgSender()) returns(uint256)  {\r\n        uint256 newItemId = tokenCounter;\r\n        _safeMint(_msgSender(), newItemId);\r\n        _setTokenURI(newItemId, newTokenURI);\r\n        tokenCounter = tokenCounter +1;\r\n        return newItemId;\r\n    }\r\n\r\n     function setBaseURI(string memory baseURI_) external onlyOwner() {\r\n        _baseURIextended = baseURI_;\r\n    }\r\n    \r\n    function _setTokenURI(uint256 tokenId, string memory _tokenURI) internal virtual {\r\n        require(_exists(tokenId), \"ERC721Metadata: URI set of nonexistent token\");\r\n        _tokenURIs[tokenId] = _tokenURI;\r\n    }\r\n    \r\n    function _baseURI() internal view virtual override returns (string memory) {\r\n        return _baseURIextended;\r\n    }\r\n    \r\n    function tokenURI(uint256 tokenId) public view virtual override returns (string memory) {\r\n        require(_exists(tokenId), \"ERC721Metadata: URI query for nonexistent token\");\r\n\r\n        string memory _tokenURI = _tokenURIs[tokenId];\r\n        string memory base = _baseURI();\r\n        \r\n        // If there is no base URI, return the token URI.\r\n        if (bytes(base).length == 0) {\r\n            return _tokenURI;\r\n        }\r\n        // If both are set, concatenate the baseURI and tokenURI (via abi.encodePacked).\r\n        if (bytes(_tokenURI).length > 0) {\r\n            return string(abi.encodePacked(base, _tokenURI));\r\n        }\r\n        // If there is a baseURI but no tokenURI, concatenate the tokenID to the baseURI.\r\n        return string(abi.encodePacked(base, tokenId.toString()));\r\n    }\r\n}",
  "sourcePath": "E:/Code/Repos/JuanuMusic/humanitweet/humanitweet-contracts/contracts/Humanitweet.sol",
  "compiler": {
    "name": "solc",
    "version": "0.8.0+commit.c7dfd78e.Emscripten.clang"
  },
  "schemaVersion": "3.3.4",
  "updatedAt": "2021-05-24T22:22:17.763Z",
  "networkType": "ethereum",
  "devdoc": {
    "kind": "dev",
    "methods": {
      "approve(address,uint256)": {
        "details": "See {IERC721-approve}."
      },
      "balanceOf(address)": {
        "details": "See {IERC721-balanceOf}."
      },
      "getApproved(uint256)": {
        "details": "See {IERC721-getApproved}."
      },
      "isApprovedForAll(address,address)": {
        "details": "See {IERC721-isApprovedForAll}."
      },
      "name()": {
        "details": "See {IERC721Metadata-name}."
      },
      "owner()": {
        "details": "Returns the address of the current owner."
      },
      "ownerOf(uint256)": {
        "details": "See {IERC721-ownerOf}."
      },
      "renounceOwnership()": {
        "details": "Leaves the contract without owner. It will not be possible to call `onlyOwner` functions anymore. Can only be called by the current owner. NOTE: Renouncing ownership will leave the contract without an owner, thereby removing any functionality that is only available to the owner."
      },
      "safeTransferFrom(address,address,uint256)": {
        "details": "See {IERC721-safeTransferFrom}."
      },
      "safeTransferFrom(address,address,uint256,bytes)": {
        "details": "See {IERC721-safeTransferFrom}."
      },
      "setApprovalForAll(address,bool)": {
        "details": "See {IERC721-setApprovalForAll}."
      },
      "supportsInterface(bytes4)": {
        "details": "See {IERC165-supportsInterface}."
      },
      "symbol()": {
        "details": "See {IERC721Metadata-symbol}."
      },
      "tokenURI(uint256)": {
        "details": "See {IERC721Metadata-tokenURI}."
      },
      "transferFrom(address,address,uint256)": {
        "details": "See {IERC721-transferFrom}."
      },
      "transferOwnership(address)": {
        "details": "Transfers ownership of the contract to a new account (`newOwner`). Can only be called by the current owner."
      }
    },
    "version": 1
  },
  "userdoc": {
    "kind": "user",
    "methods": {},
    "version": 1
  }
}