{
  "contractName": "Humanitweet",
  "abi": [
    {
      "inputs": [
        {
          "internalType": "address",
          "name": "poh",
          "type": "address"
        },
        {
          "internalType": "address",
          "name": "ubi",
          "type": "address"
        }
      ],
      "stateMutability": "nonpayable",
      "type": "constructor"
    },
    {
      "anonymous": false,
      "inputs": [
        {
          "indexed": true,
          "internalType": "address",
          "name": "owner",
          "type": "address"
        },
        {
          "indexed": true,
          "internalType": "address",
          "name": "approved",
          "type": "address"
        },
        {
          "indexed": true,
          "internalType": "uint256",
          "name": "tokenId",
          "type": "uint256"
        }
      ],
      "name": "Approval",
      "type": "event"
    },
    {
      "anonymous": false,
      "inputs": [
        {
          "indexed": true,
          "internalType": "address",
          "name": "owner",
          "type": "address"
        },
        {
          "indexed": true,
          "internalType": "address",
          "name": "operator",
          "type": "address"
        },
        {
          "indexed": false,
          "internalType": "bool",
          "name": "approved",
          "type": "bool"
        }
      ],
      "name": "ApprovalForAll",
      "type": "event"
    },
    {
      "anonymous": false,
      "inputs": [
        {
          "indexed": true,
          "internalType": "address",
          "name": "previousOwner",
          "type": "address"
        },
        {
          "indexed": true,
          "internalType": "address",
          "name": "newOwner",
          "type": "address"
        }
      ],
      "name": "OwnershipTransferred",
      "type": "event"
    },
    {
      "anonymous": false,
      "inputs": [
        {
          "indexed": true,
          "internalType": "address",
          "name": "from",
          "type": "address"
        },
        {
          "indexed": true,
          "internalType": "address",
          "name": "to",
          "type": "address"
        },
        {
          "indexed": true,
          "internalType": "uint256",
          "name": "tokenId",
          "type": "uint256"
        }
      ],
      "name": "Transfer",
      "type": "event"
    },
    {
      "inputs": [
        {
          "internalType": "address",
          "name": "to",
          "type": "address"
        },
        {
          "internalType": "uint256",
          "name": "tokenId",
          "type": "uint256"
        }
      ],
      "name": "approve",
      "outputs": [],
      "stateMutability": "nonpayable",
      "type": "function"
    },
    {
      "inputs": [
        {
          "internalType": "address",
          "name": "owner",
          "type": "address"
        }
      ],
      "name": "balanceOf",
      "outputs": [
        {
          "internalType": "uint256",
          "name": "",
          "type": "uint256"
        }
      ],
      "stateMutability": "view",
      "type": "function",
      "constant": true
    },
    {
      "inputs": [
        {
          "internalType": "uint256",
          "name": "tokenId",
          "type": "uint256"
        }
      ],
      "name": "getApproved",
      "outputs": [
        {
          "internalType": "address",
          "name": "",
          "type": "address"
        }
      ],
      "stateMutability": "view",
      "type": "function",
      "constant": true
    },
    {
      "inputs": [
        {
          "internalType": "address",
          "name": "owner",
          "type": "address"
        },
        {
          "internalType": "address",
          "name": "operator",
          "type": "address"
        }
      ],
      "name": "isApprovedForAll",
      "outputs": [
        {
          "internalType": "bool",
          "name": "",
          "type": "bool"
        }
      ],
      "stateMutability": "view",
      "type": "function",
      "constant": true
    },
    {
      "inputs": [],
      "name": "name",
      "outputs": [
        {
          "internalType": "string",
          "name": "",
          "type": "string"
        }
      ],
      "stateMutability": "view",
      "type": "function",
      "constant": true
    },
    {
      "inputs": [],
      "name": "owner",
      "outputs": [
        {
          "internalType": "address",
          "name": "",
          "type": "address"
        }
      ],
      "stateMutability": "view",
      "type": "function",
      "constant": true
    },
    {
      "inputs": [
        {
          "internalType": "uint256",
          "name": "tokenId",
          "type": "uint256"
        }
      ],
      "name": "ownerOf",
      "outputs": [
        {
          "internalType": "address",
          "name": "",
          "type": "address"
        }
      ],
      "stateMutability": "view",
      "type": "function",
      "constant": true
    },
    {
      "inputs": [],
      "name": "renounceOwnership",
      "outputs": [],
      "stateMutability": "nonpayable",
      "type": "function"
    },
    {
      "inputs": [
        {
          "internalType": "address",
          "name": "from",
          "type": "address"
        },
        {
          "internalType": "address",
          "name": "to",
          "type": "address"
        },
        {
          "internalType": "uint256",
          "name": "tokenId",
          "type": "uint256"
        }
      ],
      "name": "safeTransferFrom",
      "outputs": [],
      "stateMutability": "nonpayable",
      "type": "function"
    },
    {
      "inputs": [
        {
          "internalType": "address",
          "name": "from",
          "type": "address"
        },
        {
          "internalType": "address",
          "name": "to",
          "type": "address"
        },
        {
          "internalType": "uint256",
          "name": "tokenId",
          "type": "uint256"
        },
        {
          "internalType": "bytes",
          "name": "_data",
          "type": "bytes"
        }
      ],
      "name": "safeTransferFrom",
      "outputs": [],
      "stateMutability": "nonpayable",
      "type": "function"
    },
    {
      "inputs": [
        {
          "internalType": "address",
          "name": "operator",
          "type": "address"
        },
        {
          "internalType": "bool",
          "name": "approved",
          "type": "bool"
        }
      ],
      "name": "setApprovalForAll",
      "outputs": [],
      "stateMutability": "nonpayable",
      "type": "function"
    },
    {
      "inputs": [
        {
          "internalType": "bytes4",
          "name": "interfaceId",
          "type": "bytes4"
        }
      ],
      "name": "supportsInterface",
      "outputs": [
        {
          "internalType": "bool",
          "name": "",
          "type": "bool"
        }
      ],
      "stateMutability": "view",
      "type": "function",
      "constant": true
    },
    {
      "inputs": [],
      "name": "symbol",
      "outputs": [
        {
          "internalType": "string",
          "name": "",
          "type": "string"
        }
      ],
      "stateMutability": "view",
      "type": "function",
      "constant": true
    },
    {
      "inputs": [
        {
          "internalType": "address",
          "name": "from",
          "type": "address"
        },
        {
          "internalType": "address",
          "name": "to",
          "type": "address"
        },
        {
          "internalType": "uint256",
          "name": "tokenId",
          "type": "uint256"
        }
      ],
      "name": "transferFrom",
      "outputs": [],
      "stateMutability": "nonpayable",
      "type": "function"
    },
    {
      "inputs": [
        {
          "internalType": "address",
          "name": "newOwner",
          "type": "address"
        }
      ],
      "name": "transferOwnership",
      "outputs": [],
      "stateMutability": "nonpayable",
      "type": "function"
    },
    {
      "inputs": [
        {
          "internalType": "string",
          "name": "newTokenURI",
          "type": "string"
        }
      ],
      "name": "publishHumanitweet",
      "outputs": [
        {
          "internalType": "uint256",
          "name": "",
          "type": "uint256"
        }
      ],
      "stateMutability": "nonpayable",
      "type": "function"
    },
    {
      "inputs": [
        {
          "internalType": "string",
          "name": "baseURI_",
          "type": "string"
        }
      ],
      "name": "setBaseURI",
      "outputs": [],
      "stateMutability": "nonpayable",
      "type": "function"
    },
    {
      "inputs": [
        {
          "internalType": "uint256",
          "name": "tokenId",
          "type": "uint256"
        }
      ],
      "name": "tokenURI",
      "outputs": [
        {
          "internalType": "string",
          "name": "",
          "type": "string"
        }
      ],
      "stateMutability": "view",
      "type": "function",
      "constant": true
    },
    {
      "inputs": [],
      "name": "getTokenCounter",
      "outputs": [
        {
          "internalType": "uint256",
          "name": "",
          "type": "uint256"
        }
      ],
      "stateMutability": "view",
      "type": "function",
      "constant": true
    },
    {
      "inputs": [
        {
          "internalType": "uint256",
          "name": "tokenId",
          "type": "uint256"
        }
      ],
      "name": "getHumanitweet",
      "outputs": [
        {
          "components": [
            {
              "internalType": "string",
              "name": "tokenURI",
              "type": "string"
            },
            {
              "internalType": "uint256",
              "name": "date",
              "type": "uint256"
            },
            {
              "internalType": "uint256",
              "name": "supportGiven",
              "type": "uint256"
            },
            {
              "internalType": "uint256",
              "name": "supportersCount",
              "type": "uint256"
            }
          ],
          "internalType": "struct Humanitweet.HumanitweetData",
          "name": "",
          "type": "tuple"
        }
      ],
      "stateMutability": "view",
      "type": "function",
      "constant": true
    },
    {
      "inputs": [
        {
          "internalType": "uint256",
          "name": "tokenId",
          "type": "uint256"
        },
        {
          "internalType": "uint256",
          "name": "ubiAmount",
          "type": "uint256"
        }
      ],
      "name": "support",
      "outputs": [],
      "stateMutability": "nonpayable",
      "type": "function"
    }
  ],
  "bytecode": "0x60806040526040518060400160405280601481526020017f48554d414e5f4e4f545f52454749535445524544000000000000000000000000815250600790805190602001906200005192919062000270565b503480156200005f57600080fd5b5060405162003c0e38038062003c0e833981810160405281019062000085919062000337565b6040518060400160405280600b81526020017f48756d616e6974776565740000000000000000000000000000000000000000008152506040518060400160405280600481526020017f485457540000000000000000000000000000000000000000000000000000000081525081600090805190602001906200010992919062000270565b5080600190805190602001906200012292919062000270565b5050506000620001376200026860201b60201c565b905080600660006101000a81548173ffffffffffffffffffffffffffffffffffffffff021916908373ffffffffffffffffffffffffffffffffffffffff1602179055508073ffffffffffffffffffffffffffffffffffffffff16600073ffffffffffffffffffffffffffffffffffffffff167f8be0079c531659141344cd1fd0a4f28419497f9722a3daafe3b4186f6b6457e060405160405180910390a3506000600d8190555081600b60006101000a81548173ffffffffffffffffffffffffffffffffffffffff021916908373ffffffffffffffffffffffffffffffffffffffff16021790555080600860006101000a81548173ffffffffffffffffffffffffffffffffffffffff021916908373ffffffffffffffffffffffffffffffffffffffff16021790555050506200042b565b600033905090565b8280546200027e90620003ac565b90600052602060002090601f016020900481019282620002a25760008555620002ee565b82601f10620002bd57805160ff1916838001178555620002ee565b82800160010185558215620002ee579182015b82811115620002ed578251825591602001919060010190620002d0565b5b509050620002fd919062000301565b5090565b5b808211156200031c57600081600090555060010162000302565b5090565b600081519050620003318162000411565b92915050565b600080604083850312156200034b57600080fd5b60006200035b8582860162000320565b92505060206200036e8582860162000320565b9150509250929050565b600062000385826200038c565b9050919050565b600073ffffffffffffffffffffffffffffffffffffffff82169050919050565b60006002820490506001821680620003c557607f821691505b60208210811415620003dc57620003db620003e2565b5b50919050565b7f4e487b7100000000000000000000000000000000000000000000000000000000600052602260045260246000fd5b6200041c8162000378565b81146200042857600080fd5b50565b6137d3806200043b6000396000f3fe608060405234801561001057600080fd5b50600436106101375760003560e01c80636e02007d116100b85780639be56c671161007c5780639be56c671461034e578063a22cb4651461036a578063b88d4fde14610386578063c87b56dd146103a2578063e985e9c5146103d2578063f2fde38b1461040257610137565b80636e02007d146102ba57806370a08231146102d8578063715018a6146103085780638da5cb5b1461031257806395d89b411461033057610137565b806323b872dd116100ff57806323b872dd1461020657806342842e0e1461022257806355f804b31461023e5780636352211e1461025a5780636682fe6a1461028a57610137565b806301ffc9a71461013c57806306fdde031461016c578063081812fc1461018a578063095ea7b3146101ba57806323473922146101d6575b600080fd5b610156600480360381019061015191906126da565b61041e565b6040516101639190613072565b60405180910390f35b610174610500565b604051610181919061308d565b60405180910390f35b6101a4600480360381019061019f9190612796565b610592565b6040516101b19190612fe2565b60405180910390f35b6101d460048036038101906101cf919061269e565b610617565b005b6101f060048036038101906101eb919061272c565b61072f565b6040516101fd91906132f3565b60405180910390f35b610220600480360381019061021b9190612598565b61089b565b005b61023c60048036038101906102379190612598565b6108fb565b005b6102586004803603810190610253919061272c565b61091b565b005b610274600480360381019061026f9190612796565b6109b1565b6040516102819190612fe2565b60405180910390f35b6102a4600480360381019061029f9190612796565b610a63565b6040516102b191906132d1565b60405180910390f35b6102c2610b8a565b6040516102cf91906132f3565b60405180910390f35b6102f260048036038101906102ed9190612533565b610b94565b6040516102ff91906132f3565b60405180910390f35b610310610c4c565b005b61031a610d89565b6040516103279190612fe2565b60405180910390f35b610338610db3565b604051610345919061308d565b60405180910390f35b610368600480360381019061036391906127bf565b610e45565b005b610384600480360381019061037f9190612662565b610f3b565b005b6103a0600480360381019061039b91906125e7565b6110bc565b005b6103bc60048036038101906103b79190612796565b61111e565b6040516103c9919061308d565b60405180910390f35b6103ec60048036038101906103e7919061255c565b6112d1565b6040516103f99190613072565b60405180910390f35b61041c60048036038101906104179190612533565b611365565b005b60007f80ac58cd000000000000000000000000000000000000000000000000000000007bffffffffffffffffffffffffffffffffffffffffffffffffffffffff1916827bffffffffffffffffffffffffffffffffffffffffffffffffffffffff191614806104e957507f5b5e139f000000000000000000000000000000000000000000000000000000007bffffffffffffffffffffffffffffffffffffffffffffffffffffffff1916827bffffffffffffffffffffffffffffffffffffffffffffffffffffffff1916145b806104f957506104f882611511565b5b9050919050565b60606000805461050f9061359a565b80601f016020809104026020016040519081016040528092919081815260200182805461053b9061359a565b80156105885780601f1061055d57610100808354040283529160200191610588565b820191906000526020600020905b81548152906001019060200180831161056b57829003601f168201915b5050505050905090565b600061059d8261157b565b6105dc576040517f08c379a00000000000000000000000000000000000000000000000000000000081526004016105d390613211565b60405180910390fd5b6004600083815260200190815260200160002060009054906101000a900473ffffffffffffffffffffffffffffffffffffffff169050919050565b6000610622826109b1565b90508073ffffffffffffffffffffffffffffffffffffffff168373ffffffffffffffffffffffffffffffffffffffff161415610693576040517f08c379a000000000000000000000000000000000000000000000000000000000815260040161068a90613291565b60405180910390fd5b8073ffffffffffffffffffffffffffffffffffffffff166106b26115e7565b73ffffffffffffffffffffffffffffffffffffffff1614806106e157506106e0816106db6115e7565b6112d1565b5b610720576040517f08c379a000000000000000000000000000000000000000000000000000000000815260040161071790613191565b60405180910390fd5b61072a83836115ef565b505050565b60006107396115e7565b6000600b60009054906101000a900473ffffffffffffffffffffffffffffffffffffffff1673ffffffffffffffffffffffffffffffffffffffff166397973043836040518263ffffffff1660e01b81526004016107969190612fe2565b60c06040518083038186803b1580156107ae57600080fd5b505afa1580156107c2573d6000803e3d6000fd5b505050506040513d601f19601f820116820180604052508101906107e6919061276d565b90508060600151600790610830576040517f08c379a000000000000000000000000000000000000000000000000000000000815260040161082791906130af565b60405180910390fd5b506000600d5490506108496108436115e7565b826116a8565b60006040518060800160405280878152602001428152602001600081526020016000815250905061087a82826116c6565b6001600d546108899190613408565b600d8190555081945050505050919050565b6108ac6108a66115e7565b82611766565b6108eb576040517f08c379a00000000000000000000000000000000000000000000000000000000081526004016108e2906132b1565b60405180910390fd5b6108f6838383611844565b505050565b610916838383604051806020016040528060008152506110bc565b505050565b6109236115e7565b73ffffffffffffffffffffffffffffffffffffffff16610941610d89565b73ffffffffffffffffffffffffffffffffffffffff1614610997576040517f08c379a000000000000000000000000000000000000000000000000000000000815260040161098e90613231565b60405180910390fd5b80600c90805190602001906109ad92919061223f565b5050565b6000806002600084815260200190815260200160002060009054906101000a900473ffffffffffffffffffffffffffffffffffffffff169050600073ffffffffffffffffffffffffffffffffffffffff168173ffffffffffffffffffffffffffffffffffffffff161415610a5a576040517f08c379a0000000000000000000000000000000000000000000000000000000008152600401610a51906131d1565b60405180910390fd5b80915050919050565b610a6b6122c5565b81610a758161157b565b610ab4576040517f08c379a0000000000000000000000000000000000000000000000000000000008152600401610aab90613271565b60405180910390fd5b60096000848152602001908152602001600020604051806080016040529081600082018054610ae29061359a565b80601f0160208091040260200160405190810160405280929190818152602001828054610b0e9061359a565b8015610b5b5780601f10610b3057610100808354040283529160200191610b5b565b820191906000526020600020905b815481529060010190602001808311610b3e57829003601f168201915b505050505081526020016001820154815260200160028201548152602001600382015481525050915050919050565b6000600d54905090565b60008073ffffffffffffffffffffffffffffffffffffffff168273ffffffffffffffffffffffffffffffffffffffff161415610c05576040517f08c379a0000000000000000000000000000000000000000000000000000000008152600401610bfc906131b1565b60405180910390fd5b600360008373ffffffffffffffffffffffffffffffffffffffff1673ffffffffffffffffffffffffffffffffffffffff168152602001908152602001600020549050919050565b610c546115e7565b73ffffffffffffffffffffffffffffffffffffffff16610c72610d89565b73ffffffffffffffffffffffffffffffffffffffff1614610cc8576040517f08c379a0000000000000000000000000000000000000000000000000000000008152600401610cbf90613231565b60405180910390fd5b600073ffffffffffffffffffffffffffffffffffffffff16600660009054906101000a900473ffffffffffffffffffffffffffffffffffffffff1673ffffffffffffffffffffffffffffffffffffffff167f8be0079c531659141344cd1fd0a4f28419497f9722a3daafe3b4186f6b6457e060405160405180910390a36000600660006101000a81548173ffffffffffffffffffffffffffffffffffffffff021916908373ffffffffffffffffffffffffffffffffffffffff160217905550565b6000600660009054906101000a900473ffffffffffffffffffffffffffffffffffffffff16905090565b606060018054610dc29061359a565b80601f0160208091040260200160405190810160405280929190818152602001828054610dee9061359a565b8015610e3b5780601f10610e1057610100808354040283529160200191610e3b565b820191906000526020600020905b815481529060010190602001808311610e1e57829003601f168201915b5050505050905090565b81610e4f8161157b565b610e8e576040517f08c379a0000000000000000000000000000000000000000000000000000000008152600401610e8590613271565b60405180910390fd5b600860009054906101000a900473ffffffffffffffffffffffffffffffffffffffff1673ffffffffffffffffffffffffffffffffffffffff166379cc6790610ed46115e7565b846040518363ffffffff1660e01b8152600401610ef2929190613049565b600060405180830381600087803b158015610f0c57600080fd5b505af1158015610f20573d6000803e3d6000fd5b50505050610f368383610f316115e7565b611aa0565b505050565b610f436115e7565b73ffffffffffffffffffffffffffffffffffffffff168273ffffffffffffffffffffffffffffffffffffffff161415610fb1576040517f08c379a0000000000000000000000000000000000000000000000000000000008152600401610fa890613151565b60405180910390fd5b8060056000610fbe6115e7565b73ffffffffffffffffffffffffffffffffffffffff1673ffffffffffffffffffffffffffffffffffffffff16815260200190815260200160002060008473ffffffffffffffffffffffffffffffffffffffff1673ffffffffffffffffffffffffffffffffffffffff16815260200190815260200160002060006101000a81548160ff0219169083151502179055508173ffffffffffffffffffffffffffffffffffffffff1661106b6115e7565b73ffffffffffffffffffffffffffffffffffffffff167f17307eab39ab6107e8899845ad3d59bd9653f200f220920489ca2b5937696c31836040516110b09190613072565b60405180910390a35050565b6110cd6110c76115e7565b83611766565b61110c576040517f08c379a0000000000000000000000000000000000000000000000000000000008152600401611103906132b1565b60405180910390fd5b61111884848484611bcc565b50505050565b60608161112a8161157b565b611169576040517f08c379a000000000000000000000000000000000000000000000000000000000815260040161116090613271565b60405180910390fd5b6000600960008581526020019081526020016000206040518060800160405290816000820180546111999061359a565b80601f01602080910402602001604051908101604052809291908181526020018280546111c59061359a565b80156112125780601f106111e757610100808354040283529160200191611212565b820191906000526020600020905b8154815290600101906020018083116111f557829003601f168201915b50505050508152602001600182015481526020016002820154815260200160038201548152505090506000611245611c28565b905060008151141561125f578160000151935050506112cb565b6000826000015151111561129c57808260000151604051602001611284929190612fbe565b604051602081830303815290604052935050506112cb565b806112a686611cba565b6040516020016112b7929190612fbe565b604051602081830303815290604052935050505b50919050565b6000600560008473ffffffffffffffffffffffffffffffffffffffff1673ffffffffffffffffffffffffffffffffffffffff16815260200190815260200160002060008373ffffffffffffffffffffffffffffffffffffffff1673ffffffffffffffffffffffffffffffffffffffff16815260200190815260200160002060009054906101000a900460ff16905092915050565b61136d6115e7565b73ffffffffffffffffffffffffffffffffffffffff1661138b610d89565b73ffffffffffffffffffffffffffffffffffffffff16146113e1576040517f08c379a00000000000000000000000000000000000000000000000000000000081526004016113d890613231565b60405180910390fd5b600073ffffffffffffffffffffffffffffffffffffffff168173ffffffffffffffffffffffffffffffffffffffff161415611451576040517f08c379a0000000000000000000000000000000000000000000000000000000008152600401611448906130f1565b60405180910390fd5b8073ffffffffffffffffffffffffffffffffffffffff16600660009054906101000a900473ffffffffffffffffffffffffffffffffffffffff1673ffffffffffffffffffffffffffffffffffffffff167f8be0079c531659141344cd1fd0a4f28419497f9722a3daafe3b4186f6b6457e060405160405180910390a380600660006101000a81548173ffffffffffffffffffffffffffffffffffffffff021916908373ffffffffffffffffffffffffffffffffffffffff16021790555050565b60007f01ffc9a7000000000000000000000000000000000000000000000000000000007bffffffffffffffffffffffffffffffffffffffffffffffffffffffff1916827bffffffffffffffffffffffffffffffffffffffffffffffffffffffff1916149050919050565b60008073ffffffffffffffffffffffffffffffffffffffff166002600084815260200190815260200160002060009054906101000a900473ffffffffffffffffffffffffffffffffffffffff1673ffffffffffffffffffffffffffffffffffffffff1614159050919050565b600033905090565b816004600083815260200190815260200160002060006101000a81548173ffffffffffffffffffffffffffffffffffffffff021916908373ffffffffffffffffffffffffffffffffffffffff160217905550808273ffffffffffffffffffffffffffffffffffffffff16611662836109b1565b73ffffffffffffffffffffffffffffffffffffffff167f8c5be1e5ebec7d5bd14f71427d1e84f3dd0314c0f7b2291e5b200ac8c7c3b92560405160405180910390a45050565b6116c2828260405180602001604052806000815250611e67565b5050565b816116d08161157b565b61170f576040517f08c379a000000000000000000000000000000000000000000000000000000000815260040161170690613271565b60405180910390fd5b8160096000858152602001908152602001600020600082015181600001908051906020019061173f92919061223f565b50602082015181600101556040820151816002015560608201518160030155905050505050565b60006117718261157b565b6117b0576040517f08c379a00000000000000000000000000000000000000000000000000000000081526004016117a790613171565b60405180910390fd5b60006117bb836109b1565b90508073ffffffffffffffffffffffffffffffffffffffff168473ffffffffffffffffffffffffffffffffffffffff16148061182a57508373ffffffffffffffffffffffffffffffffffffffff1661181284610592565b73ffffffffffffffffffffffffffffffffffffffff16145b8061183b575061183a81856112d1565b5b91505092915050565b8273ffffffffffffffffffffffffffffffffffffffff16611864826109b1565b73ffffffffffffffffffffffffffffffffffffffff16146118ba576040517f08c379a00000000000000000000000000000000000000000000000000000000081526004016118b190613251565b60405180910390fd5b600073ffffffffffffffffffffffffffffffffffffffff168273ffffffffffffffffffffffffffffffffffffffff16141561192a576040517f08c379a000000000000000000000000000000000000000000000000000000000815260040161192190613131565b60405180910390fd5b611935838383611ec2565b6119406000826115ef565b6001600360008573ffffffffffffffffffffffffffffffffffffffff1673ffffffffffffffffffffffffffffffffffffffff1681526020019081526020016000206000828254611990919061348f565b925050819055506001600360008473ffffffffffffffffffffffffffffffffffffffff1673ffffffffffffffffffffffffffffffffffffffff16815260200190815260200160002060008282546119e79190613408565b92505081905550816002600083815260200190815260200160002060006101000a81548173ffffffffffffffffffffffffffffffffffffffff021916908373ffffffffffffffffffffffffffffffffffffffff160217905550808273ffffffffffffffffffffffffffffffffffffffff168473ffffffffffffffffffffffffffffffffffffffff167fddf252ad1be2c89b69c2b068fc378daa952ba7f163c4a11628f55a4df523b3ef60405160405180910390a4505050565b81600960008581526020019081526020016000206002016000828254611ac69190613408565b92505081905550600a600084815260200190815260200160002060008273ffffffffffffffffffffffffffffffffffffffff1673ffffffffffffffffffffffffffffffffffffffff16815260200190815260200160002060009054906101000a900460ff16611bc7576001600a600085815260200190815260200160002060008373ffffffffffffffffffffffffffffffffffffffff1673ffffffffffffffffffffffffffffffffffffffff16815260200190815260200160002060006101000a81548160ff0219169083151502179055506001600960008581526020019081526020016000206003016000828254611bbf9190613408565b925050819055505b505050565b611bd7848484611844565b611be384848484611ec7565b611c22576040517f08c379a0000000000000000000000000000000000000000000000000000000008152600401611c19906130d1565b60405180910390fd5b50505050565b6060600c8054611c379061359a565b80601f0160208091040260200160405190810160405280929190818152602001828054611c639061359a565b8015611cb05780601f10611c8557610100808354040283529160200191611cb0565b820191906000526020600020905b815481529060010190602001808311611c9357829003601f168201915b5050505050905090565b60606000821415611d02576040518060400160405280600181526020017f30000000000000000000000000000000000000000000000000000000000000008152509050611e62565b600082905060005b60008214611d34578080611d1d906135cc565b915050600a82611d2d919061345e565b9150611d0a565b60008167ffffffffffffffff811115611d76577f4e487b7100000000000000000000000000000000000000000000000000000000600052604160045260246000fd5b6040519080825280601f01601f191660200182016040528015611da85781602001600182028036833780820191505090505b5090505b60008514611e5b57600182611dc1919061348f565b9150600a85611dd09190613615565b6030611ddc9190613408565b60f81b818381518110611e18577f4e487b7100000000000000000000000000000000000000000000000000000000600052603260045260246000fd5b60200101907effffffffffffffffffffffffffffffffffffffffffffffffffffffffffffff1916908160001a905350600a85611e54919061345e565b9450611dac565b8093505050505b919050565b611e71838361205e565b611e7e6000848484611ec7565b611ebd576040517f08c379a0000000000000000000000000000000000000000000000000000000008152600401611eb4906130d1565b60405180910390fd5b505050565b505050565b6000611ee88473ffffffffffffffffffffffffffffffffffffffff1661222c565b15612051578373ffffffffffffffffffffffffffffffffffffffff1663150b7a02611f116115e7565b8786866040518563ffffffff1660e01b8152600401611f339493929190612ffd565b602060405180830381600087803b158015611f4d57600080fd5b505af1925050508015611f7e57506040513d601f19601f82011682018060405250810190611f7b9190612703565b60015b612001573d8060008114611fae576040519150601f19603f3d011682016040523d82523d6000602084013e611fb3565b606091505b50600081511415611ff9576040517f08c379a0000000000000000000000000000000000000000000000000000000008152600401611ff0906130d1565b60405180910390fd5b805181602001fd5b63150b7a0260e01b7bffffffffffffffffffffffffffffffffffffffffffffffffffffffff1916817bffffffffffffffffffffffffffffffffffffffffffffffffffffffff191614915050612056565b600190505b949350505050565b600073ffffffffffffffffffffffffffffffffffffffff168273ffffffffffffffffffffffffffffffffffffffff1614156120ce576040517f08c379a00000000000000000000000000000000000000000000000000000000081526004016120c5906131f1565b60405180910390fd5b6120d78161157b565b15612117576040517f08c379a000000000000000000000000000000000000000000000000000000000815260040161210e90613111565b60405180910390fd5b61212360008383611ec2565b6001600360008473ffffffffffffffffffffffffffffffffffffffff1673ffffffffffffffffffffffffffffffffffffffff16815260200190815260200160002060008282546121739190613408565b92505081905550816002600083815260200190815260200160002060006101000a81548173ffffffffffffffffffffffffffffffffffffffff021916908373ffffffffffffffffffffffffffffffffffffffff160217905550808273ffffffffffffffffffffffffffffffffffffffff16600073ffffffffffffffffffffffffffffffffffffffff167fddf252ad1be2c89b69c2b068fc378daa952ba7f163c4a11628f55a4df523b3ef60405160405180910390a45050565b600080823b905060008111915050919050565b82805461224b9061359a565b90600052602060002090601f01602090048101928261226d57600085556122b4565b82601f1061228657805160ff19168380011785556122b4565b828001600101855582156122b4579182015b828111156122b3578251825591602001919060010190612298565b5b5090506122c191906122ed565b5090565b6040518060800160405280606081526020016000815260200160008152602001600081525090565b5b808211156123065760008160009055506001016122ee565b5090565b600061231d6123188461333f565b61330e565b90508281526020810184848401111561233557600080fd5b612340848285613558565b509392505050565b600061235b6123568461336f565b61330e565b90508281526020810184848401111561237357600080fd5b61237e848285613558565b509392505050565b60008135905061239581613713565b92915050565b6000813590506123aa8161372a565b92915050565b6000815190506123bf8161372a565b92915050565b6000813590506123d481613741565b92915050565b6000815190506123e981613741565b92915050565b600082601f83011261240057600080fd5b813561241084826020860161230a565b91505092915050565b600082601f83011261242a57600080fd5b813561243a848260208601612348565b91505092915050565b600060c0828403121561245557600080fd5b61245f60c061330e565b9050600061246f8482850161251e565b600083015250602061248384828501612509565b602083015250604061249784828501612509565b60408301525060606124ab848285016123b0565b60608301525060806124bf848285016123b0565b60808301525060a06124d3848285016124f4565b60a08301525092915050565b6000813590506124ee81613758565b92915050565b60008151905061250381613758565b92915050565b6000815190506125188161376f565b92915050565b60008151905061252d81613786565b92915050565b60006020828403121561254557600080fd5b600061255384828501612386565b91505092915050565b6000806040838503121561256f57600080fd5b600061257d85828601612386565b925050602061258e85828601612386565b9150509250929050565b6000806000606084860312156125ad57600080fd5b60006125bb86828701612386565b93505060206125cc86828701612386565b92505060406125dd868287016124df565b9150509250925092565b600080600080608085870312156125fd57600080fd5b600061260b87828801612386565b945050602061261c87828801612386565b935050604061262d878288016124df565b925050606085013567ffffffffffffffff81111561264a57600080fd5b612656878288016123ef565b91505092959194509250565b6000806040838503121561267557600080fd5b600061268385828601612386565b92505060206126948582860161239b565b9150509250929050565b600080604083850312156126b157600080fd5b60006126bf85828601612386565b92505060206126d0858286016124df565b9150509250929050565b6000602082840312156126ec57600080fd5b60006126fa848285016123c5565b91505092915050565b60006020828403121561271557600080fd5b6000612723848285016123da565b91505092915050565b60006020828403121561273e57600080fd5b600082013567ffffffffffffffff81111561275857600080fd5b61276484828501612419565b91505092915050565b600060c0828403121561277f57600080fd5b600061278d84828501612443565b91505092915050565b6000602082840312156127a857600080fd5b60006127b6848285016124df565b91505092915050565b600080604083850312156127d257600080fd5b60006127e0858286016124df565b92505060206127f1858286016124df565b9150509250929050565b612804816134c3565b82525050565b612813816134d5565b82525050565b6000612824826133b4565b61282e81856133ca565b935061283e818560208601613567565b61284781613702565b840191505092915050565b600061285d826133bf565b61286781856133db565b9350612877818560208601613567565b61288081613702565b840191505092915050565b6000612896826133bf565b6128a081856133ec565b93506128b0818560208601613567565b6128b981613702565b840191505092915050565b60006128cf826133bf565b6128d981856133fd565b93506128e9818560208601613567565b80840191505092915050565b600081546129028161359a565b61290c81866133ec565b9450600182166000811461292757600181146129395761296c565b60ff198316865260208601935061296c565b6129428561339f565b60005b8381101561296457815481890152600182019150602081019050612945565b808801955050505b50505092915050565b60006129826032836133ec565b91507f4552433732313a207472616e7366657220746f206e6f6e20455243373231526560008301527f63656976657220696d706c656d656e74657200000000000000000000000000006020830152604082019050919050565b60006129e86026836133ec565b91507f4f776e61626c653a206e6577206f776e657220697320746865207a65726f206160008301527f64647265737300000000000000000000000000000000000000000000000000006020830152604082019050919050565b6000612a4e601c836133ec565b91507f4552433732313a20746f6b656e20616c7265616479206d696e746564000000006000830152602082019050919050565b6000612a8e6024836133ec565b91507f4552433732313a207472616e7366657220746f20746865207a65726f2061646460008301527f72657373000000000000000000000000000000000000000000000000000000006020830152604082019050919050565b6000612af46019836133ec565b91507f4552433732313a20617070726f766520746f2063616c6c6572000000000000006000830152602082019050919050565b6000612b34602c836133ec565b91507f4552433732313a206f70657261746f7220717565727920666f72206e6f6e657860008301527f697374656e7420746f6b656e00000000000000000000000000000000000000006020830152604082019050919050565b6000612b9a6038836133ec565b91507f4552433732313a20617070726f76652063616c6c6572206973206e6f74206f7760008301527f6e6572206e6f7220617070726f76656420666f7220616c6c00000000000000006020830152604082019050919050565b6000612c00602a836133ec565b91507f4552433732313a2062616c616e636520717565727920666f7220746865207a6560008301527f726f2061646472657373000000000000000000000000000000000000000000006020830152604082019050919050565b6000612c666029836133ec565b91507f4552433732313a206f776e657220717565727920666f72206e6f6e657869737460008301527f656e7420746f6b656e00000000000000000000000000000000000000000000006020830152604082019050919050565b6000612ccc6020836133ec565b91507f4552433732313a206d696e7420746f20746865207a65726f20616464726573736000830152602082019050919050565b6000612d0c602c836133ec565b91507f4552433732313a20617070726f76656420717565727920666f72206e6f6e657860008301527f697374656e7420746f6b656e00000000000000000000000000000000000000006020830152604082019050919050565b6000612d726020836133ec565b91507f4f776e61626c653a2063616c6c6572206973206e6f7420746865206f776e65726000830152602082019050919050565b6000612db26029836133ec565b91507f4552433732313a207472616e73666572206f6620746f6b656e2074686174206960008301527f73206e6f74206f776e00000000000000000000000000000000000000000000006020830152604082019050919050565b6000612e18602f836133ec565b91507f4552433732314d657461646174613a2055524920717565727920666f72206e6f60008301527f6e6578697374656e7420746f6b656e00000000000000000000000000000000006020830152604082019050919050565b6000612e7e6021836133ec565b91507f4552433732313a20617070726f76616c20746f2063757272656e74206f776e6560008301527f72000000000000000000000000000000000000000000000000000000000000006020830152604082019050919050565b6000612ee46031836133ec565b91507f4552433732313a207472616e736665722063616c6c6572206973206e6f74206f60008301527f776e6572206e6f7220617070726f7665640000000000000000000000000000006020830152604082019050919050565b60006080830160008301518482036000860152612f5a8282612852565b9150506020830151612f6f6020860182612fa0565b506040830151612f826040860182612fa0565b506060830151612f956060860182612fa0565b508091505092915050565b612fa98161352d565b82525050565b612fb88161352d565b82525050565b6000612fca82856128c4565b9150612fd682846128c4565b91508190509392505050565b6000602082019050612ff760008301846127fb565b92915050565b600060808201905061301260008301876127fb565b61301f60208301866127fb565b61302c6040830185612faf565b818103606083015261303e8184612819565b905095945050505050565b600060408201905061305e60008301856127fb565b61306b6020830184612faf565b9392505050565b6000602082019050613087600083018461280a565b92915050565b600060208201905081810360008301526130a7818461288b565b905092915050565b600060208201905081810360008301526130c981846128f5565b905092915050565b600060208201905081810360008301526130ea81612975565b9050919050565b6000602082019050818103600083015261310a816129db565b9050919050565b6000602082019050818103600083015261312a81612a41565b9050919050565b6000602082019050818103600083015261314a81612a81565b9050919050565b6000602082019050818103600083015261316a81612ae7565b9050919050565b6000602082019050818103600083015261318a81612b27565b9050919050565b600060208201905081810360008301526131aa81612b8d565b9050919050565b600060208201905081810360008301526131ca81612bf3565b9050919050565b600060208201905081810360008301526131ea81612c59565b9050919050565b6000602082019050818103600083015261320a81612cbf565b9050919050565b6000602082019050818103600083015261322a81612cff565b9050919050565b6000602082019050818103600083015261324a81612d65565b9050919050565b6000602082019050818103600083015261326a81612da5565b9050919050565b6000602082019050818103600083015261328a81612e0b565b9050919050565b600060208201905081810360008301526132aa81612e71565b9050919050565b600060208201905081810360008301526132ca81612ed7565b9050919050565b600060208201905081810360008301526132eb8184612f3d565b905092915050565b60006020820190506133086000830184612faf565b92915050565b6000604051905081810181811067ffffffffffffffff82111715613335576133346136d3565b5b8060405250919050565b600067ffffffffffffffff82111561335a576133596136d3565b5b601f19601f8301169050602081019050919050565b600067ffffffffffffffff82111561338a576133896136d3565b5b601f19601f8301169050602081019050919050565b60008190508160005260206000209050919050565b600081519050919050565b600081519050919050565b600082825260208201905092915050565b600082825260208201905092915050565b600082825260208201905092915050565b600081905092915050565b60006134138261352d565b915061341e8361352d565b9250827fffffffffffffffffffffffffffffffffffffffffffffffffffffffffffffffff0382111561345357613452613646565b5b828201905092915050565b60006134698261352d565b91506134748361352d565b92508261348457613483613675565b5b828204905092915050565b600061349a8261352d565b91506134a58361352d565b9250828210156134b8576134b7613646565b5b828203905092915050565b60006134ce8261350d565b9050919050565b60008115159050919050565b60007fffffffff0000000000000000000000000000000000000000000000000000000082169050919050565b600073ffffffffffffffffffffffffffffffffffffffff82169050919050565b6000819050919050565b600067ffffffffffffffff82169050919050565b600060ff82169050919050565b82818337600083830152505050565b60005b8381101561358557808201518184015260208101905061356a565b83811115613594576000848401525b50505050565b600060028204905060018216806135b257607f821691505b602082108114156135c6576135c56136a4565b5b50919050565b60006135d78261352d565b91507fffffffffffffffffffffffffffffffffffffffffffffffffffffffffffffffff82141561360a57613609613646565b5b600182019050919050565b60006136208261352d565b915061362b8361352d565b92508261363b5761363a613675565b5b828206905092915050565b7f4e487b7100000000000000000000000000000000000000000000000000000000600052601160045260246000fd5b7f4e487b7100000000000000000000000000000000000000000000000000000000600052601260045260246000fd5b7f4e487b7100000000000000000000000000000000000000000000000000000000600052602260045260246000fd5b7f4e487b7100000000000000000000000000000000000000000000000000000000600052604160045260246000fd5b6000601f19601f8301169050919050565b61371c816134c3565b811461372757600080fd5b50565b613733816134d5565b811461373e57600080fd5b50565b61374a816134e1565b811461375557600080fd5b50565b6137618161352d565b811461376c57600080fd5b50565b61377881613537565b811461378357600080fd5b50565b61378f8161354b565b811461379a57600080fd5b5056fea264697066735822122062d4b22d025d88e5f2b8cf57575fcfdd83d57e1c4893ef9f3da097435b7c6d8f64736f6c63430008000033",
  "immutableReferences": {},
  "source": "// SPDX-License-Identifier: MIT\r\npragma solidity 0.8.0;\r\n\r\nimport \"@openzeppelin/contracts/token/ERC721/ERC721.sol\";\r\nimport \"@openzeppelin/contracts/token/ERC20/IERC20.sol\";\r\nimport \"@openzeppelin/contracts/token/ERC20/extensions/ERC20Burnable.sol\";\r\nimport \"@openzeppelin/contracts/access/Ownable.sol\";\r\nimport \"./IProofOfhumanity.sol\";\r\n\r\ncontract Humanitweet is ERC721, Ownable {\r\n\r\n    string HUMAN_NOT_REGISTERED = \"HUMAN_NOT_REGISTERED\";\r\n    using Strings for uint256;\r\n    address _ubi;\r\n\r\n    struct HumanitweetData {\r\n        \r\n        // URI of the NFT data\r\n        string tokenURI;\r\n        \r\n        // Date at which the tweet was minted\r\n        uint256 date;\r\n        \r\n        // Ammount given as support\r\n        uint256 supportGiven;\r\n        \r\n        // Total number of unique humans that support this tweet\r\n        uint256 supportersCount;\r\n    }\r\n    \r\n    // Mapping for NFTS\r\n    mapping (uint256 => HumanitweetData) private _humanitweets;\r\n\r\n    // Mapping for humans that support each tweet\r\n    mapping(uint256 => mapping(address => bool)) _supporters;\r\n\r\n    address private _poh;\r\n    // Base URI\r\n    string private _baseURIextended;\r\n\r\n    uint256 private _tokenCounter;\r\n    \r\n\r\n    /// Require that an address is a valid registered human.\r\n    modifier isHuman(address _submission) {\r\n        IProofOfHumanity.SubmissionInfo memory info = IProofOfHumanity(_poh).getSubmissionInfo(_submission);\r\n        require(info.registered, HUMAN_NOT_REGISTERED);\r\n        _;\r\n    }\r\n\r\n    /// Require that a token has been minted\r\n    modifier tokenExists(uint256 tokenId) {\r\n        require(_exists(tokenId), \"ERC721Metadata: URI query for nonexistent token\");\r\n        _;\r\n    }\r\n\r\n    constructor(address poh, address ubi) public ERC721(\"Humanitweet\", \"HTWT\") {\r\n        _tokenCounter = 0;\r\n        _poh = poh;\r\n        _ubi = ubi;\r\n    }\r\n\r\n    function publishHumanitweet(string memory newTokenURI) public isHuman(_msgSender()) returns(uint256)  {\r\n        \r\n        // Get the new token iD\r\n        uint256 newItemId = _tokenCounter;\r\n\r\n        // Mint the NFT with the new ID\r\n        _safeMint(_msgSender(), newItemId);\r\n\r\n        // Generate the humanitweet NFT storage data\r\n        HumanitweetData memory humanitweet = HumanitweetData({\r\n            date: block.timestamp,\r\n            tokenURI: newTokenURI,\r\n            supportGiven: 0,\r\n            supportersCount: 0\r\n        });\r\n\r\n        // Set the humanitweet dat to the token\r\n        _setHumanitweet(newItemId, humanitweet);\r\n        \r\n        // Update the token counter\r\n        _tokenCounter = _tokenCounter +1;\r\n\r\n        // Return the new token ID\r\n        return newItemId;\r\n    }\r\n\r\n     function setBaseURI(string memory baseURI_) external onlyOwner() {\r\n        _baseURIextended = baseURI_;\r\n    }\r\n    \r\n    function _baseURI() internal view virtual override returns (string memory) {\r\n        return _baseURIextended;\r\n    }\r\n\r\n    function _setHumanitweet(uint256 tokenId, HumanitweetData memory data) internal virtual tokenExists(tokenId) {\r\n     _humanitweets[tokenId] = data;\r\n    }\r\n    \r\n    function tokenURI(uint256 tokenId) public view virtual override tokenExists(tokenId) returns (string memory) {\r\n\r\n        HumanitweetData memory humanitweet = _humanitweets[tokenId];\r\n        string memory base = _baseURI();\r\n        \r\n        // If there is no base URI, return the token URI.\r\n        if (bytes(base).length == 0) {\r\n            return humanitweet.tokenURI;\r\n        }\r\n        // If both are set, concatenate the baseURI and tokenURI (via abi.encodePacked).\r\n        if (bytes(humanitweet.tokenURI).length > 0) {\r\n            return string(abi.encodePacked(base, humanitweet.tokenURI));\r\n        }\r\n        // If there is a baseURI but no tokenURI, concatenate the tokenID to the baseURI.\r\n        return string(abi.encodePacked(base, tokenId.toString()));\r\n    }\r\n\r\n    function getTokenCounter() public view returns(uint256) {\r\n        return _tokenCounter;\r\n    }\r\n\r\n    function getHumanitweet(uint256 tokenId) public view virtual tokenExists(tokenId) returns (HumanitweetData memory) {\r\n        return _humanitweets[tokenId];\r\n    }\r\n\r\n    /**\r\n     * Gives support to this tweet and burns the UBI. \r\n     * Supporters count is only added once per human.\r\n     * If a Human gives support multiple times it will only count as one supporter.\r\n     */\r\n    function support(uint256 tokenId, uint256 ubiAmount) public tokenExists(tokenId) {\r\n\r\n        // Burn the UBI on behalf of the caller.\r\n        ERC20Burnable(_ubi).burnFrom(_msgSender(), ubiAmount);\r\n        \r\n        // Add support based on ubi amount\r\n        _addSupport(tokenId, ubiAmount, _msgSender());\r\n        \r\n    }\r\n\r\n    function _addSupport(uint256 tokenId, uint256 amount, address supporter) private {\r\n         // Add the amount of support given\r\n        _humanitweets[tokenId].supportGiven += amount;\r\n\r\n        // If is first support, add 1 supporter.\r\n        if(!_supporters[tokenId][supporter]) {\r\n            _supporters[tokenId][supporter] = true;\r\n            _humanitweets[tokenId].supportersCount += 1;\r\n        }\r\n    }\r\n}",
  "sourcePath": "E:/Code/Repos/JuanuMusic/humanitweet/humanitweet-contracts/contracts/Humanitweet.sol",
  "compiler": {
    "name": "solc",
    "version": "0.8.0+commit.c7dfd78e.Emscripten.clang"
  },
  "schemaVersion": "3.3.4",
  "updatedAt": "2021-06-24T23:19:49.762Z",
  "networkType": "ethereum",
  "devdoc": {
    "kind": "dev",
    "methods": {
      "approve(address,uint256)": {
        "details": "See {IERC721-approve}."
      },
      "balanceOf(address)": {
        "details": "See {IERC721-balanceOf}."
      },
      "getApproved(uint256)": {
        "details": "See {IERC721-getApproved}."
      },
      "isApprovedForAll(address,address)": {
        "details": "See {IERC721-isApprovedForAll}."
      },
      "name()": {
        "details": "See {IERC721Metadata-name}."
      },
      "owner()": {
        "details": "Returns the address of the current owner."
      },
      "ownerOf(uint256)": {
        "details": "See {IERC721-ownerOf}."
      },
      "renounceOwnership()": {
        "details": "Leaves the contract without owner. It will not be possible to call `onlyOwner` functions anymore. Can only be called by the current owner. NOTE: Renouncing ownership will leave the contract without an owner, thereby removing any functionality that is only available to the owner."
      },
      "safeTransferFrom(address,address,uint256)": {
        "details": "See {IERC721-safeTransferFrom}."
      },
      "safeTransferFrom(address,address,uint256,bytes)": {
        "details": "See {IERC721-safeTransferFrom}."
      },
      "setApprovalForAll(address,bool)": {
        "details": "See {IERC721-setApprovalForAll}."
      },
      "supportsInterface(bytes4)": {
        "details": "See {IERC165-supportsInterface}."
      },
      "symbol()": {
        "details": "See {IERC721Metadata-symbol}."
      },
      "tokenURI(uint256)": {
        "details": "See {IERC721Metadata-tokenURI}."
      },
      "transferFrom(address,address,uint256)": {
        "details": "See {IERC721-transferFrom}."
      },
      "transferOwnership(address)": {
        "details": "Transfers ownership of the contract to a new account (`newOwner`). Can only be called by the current owner."
      }
    },
    "version": 1
  },
  "userdoc": {
    "kind": "user",
    "methods": {
      "support(uint256,uint256)": {
        "notice": "Gives support to this tweet and burns the UBI.  Supporters count is only added once per human. If a Human gives support multiple times it will only count as one supporter."
      }
    },
    "version": 1
  }
}