{
  "contractName": "Humanitweet",
  "abi": [
    {
      "inputs": [],
      "stateMutability": "nonpayable",
      "type": "constructor"
    },
    {
      "anonymous": false,
      "inputs": [
        {
          "indexed": true,
          "internalType": "address",
          "name": "owner",
          "type": "address"
        },
        {
          "indexed": true,
          "internalType": "address",
          "name": "approved",
          "type": "address"
        },
        {
          "indexed": true,
          "internalType": "uint256",
          "name": "tokenId",
          "type": "uint256"
        }
      ],
      "name": "Approval",
      "type": "event"
    },
    {
      "anonymous": false,
      "inputs": [
        {
          "indexed": true,
          "internalType": "address",
          "name": "owner",
          "type": "address"
        },
        {
          "indexed": true,
          "internalType": "address",
          "name": "operator",
          "type": "address"
        },
        {
          "indexed": false,
          "internalType": "bool",
          "name": "approved",
          "type": "bool"
        }
      ],
      "name": "ApprovalForAll",
      "type": "event"
    },
    {
      "anonymous": false,
      "inputs": [
        {
          "indexed": true,
          "internalType": "address",
          "name": "from",
          "type": "address"
        },
        {
          "indexed": true,
          "internalType": "address",
          "name": "to",
          "type": "address"
        },
        {
          "indexed": true,
          "internalType": "uint256",
          "name": "tokenId",
          "type": "uint256"
        }
      ],
      "name": "Transfer",
      "type": "event"
    },
    {
      "inputs": [
        {
          "internalType": "address",
          "name": "to",
          "type": "address"
        },
        {
          "internalType": "uint256",
          "name": "tokenId",
          "type": "uint256"
        }
      ],
      "name": "approve",
      "outputs": [],
      "stateMutability": "nonpayable",
      "type": "function"
    },
    {
      "inputs": [
        {
          "internalType": "address",
          "name": "owner",
          "type": "address"
        }
      ],
      "name": "balanceOf",
      "outputs": [
        {
          "internalType": "uint256",
          "name": "",
          "type": "uint256"
        }
      ],
      "stateMutability": "view",
      "type": "function"
    },
    {
      "inputs": [
        {
          "internalType": "uint256",
          "name": "tokenId",
          "type": "uint256"
        }
      ],
      "name": "getApproved",
      "outputs": [
        {
          "internalType": "address",
          "name": "",
          "type": "address"
        }
      ],
      "stateMutability": "view",
      "type": "function"
    },
    {
      "inputs": [
        {
          "internalType": "address",
          "name": "owner",
          "type": "address"
        },
        {
          "internalType": "address",
          "name": "operator",
          "type": "address"
        }
      ],
      "name": "isApprovedForAll",
      "outputs": [
        {
          "internalType": "bool",
          "name": "",
          "type": "bool"
        }
      ],
      "stateMutability": "view",
      "type": "function"
    },
    {
      "inputs": [],
      "name": "name",
      "outputs": [
        {
          "internalType": "string",
          "name": "",
          "type": "string"
        }
      ],
      "stateMutability": "view",
      "type": "function"
    },
    {
      "inputs": [
        {
          "internalType": "uint256",
          "name": "tokenId",
          "type": "uint256"
        }
      ],
      "name": "ownerOf",
      "outputs": [
        {
          "internalType": "address",
          "name": "",
          "type": "address"
        }
      ],
      "stateMutability": "view",
      "type": "function"
    },
    {
      "inputs": [
        {
          "internalType": "address",
          "name": "from",
          "type": "address"
        },
        {
          "internalType": "address",
          "name": "to",
          "type": "address"
        },
        {
          "internalType": "uint256",
          "name": "tokenId",
          "type": "uint256"
        }
      ],
      "name": "safeTransferFrom",
      "outputs": [],
      "stateMutability": "nonpayable",
      "type": "function"
    },
    {
      "inputs": [
        {
          "internalType": "address",
          "name": "from",
          "type": "address"
        },
        {
          "internalType": "address",
          "name": "to",
          "type": "address"
        },
        {
          "internalType": "uint256",
          "name": "tokenId",
          "type": "uint256"
        },
        {
          "internalType": "bytes",
          "name": "_data",
          "type": "bytes"
        }
      ],
      "name": "safeTransferFrom",
      "outputs": [],
      "stateMutability": "nonpayable",
      "type": "function"
    },
    {
      "inputs": [
        {
          "internalType": "address",
          "name": "operator",
          "type": "address"
        },
        {
          "internalType": "bool",
          "name": "approved",
          "type": "bool"
        }
      ],
      "name": "setApprovalForAll",
      "outputs": [],
      "stateMutability": "nonpayable",
      "type": "function"
    },
    {
      "inputs": [
        {
          "internalType": "bytes4",
          "name": "interfaceId",
          "type": "bytes4"
        }
      ],
      "name": "supportsInterface",
      "outputs": [
        {
          "internalType": "bool",
          "name": "",
          "type": "bool"
        }
      ],
      "stateMutability": "view",
      "type": "function"
    },
    {
      "inputs": [],
      "name": "symbol",
      "outputs": [
        {
          "internalType": "string",
          "name": "",
          "type": "string"
        }
      ],
      "stateMutability": "view",
      "type": "function"
    },
    {
      "inputs": [],
      "name": "tokenCounter",
      "outputs": [
        {
          "internalType": "uint256",
          "name": "",
          "type": "uint256"
        }
      ],
      "stateMutability": "view",
      "type": "function"
    },
    {
      "inputs": [
        {
          "internalType": "uint256",
          "name": "tokenId",
          "type": "uint256"
        }
      ],
      "name": "tokenURI",
      "outputs": [
        {
          "internalType": "string",
          "name": "",
          "type": "string"
        }
      ],
      "stateMutability": "view",
      "type": "function"
    },
    {
      "inputs": [
        {
          "internalType": "address",
          "name": "from",
          "type": "address"
        },
        {
          "internalType": "address",
          "name": "to",
          "type": "address"
        },
        {
          "internalType": "uint256",
          "name": "tokenId",
          "type": "uint256"
        }
      ],
      "name": "transferFrom",
      "outputs": [],
      "stateMutability": "nonpayable",
      "type": "function"
    }
  ],
  "bytecode": "0x60806040523480156200001157600080fd5b506040518060400160405280600b81526020017f48756d616e6977746565740000000000000000000000000000000000000000008152506040518060400160405280600381526020017f4854570000000000000000000000000000000000000000000000000000000000815250816000908051906020019062000096929190620000c0565b508060019080519060200190620000af929190620000c0565b5050506000600681905550620001d5565b828054620000ce9062000170565b90600052602060002090601f016020900481019282620000f257600085556200013e565b82601f106200010d57805160ff19168380011785556200013e565b828001600101855582156200013e579182015b828111156200013d57825182559160200191906001019062000120565b5b5090506200014d919062000151565b5090565b5b808211156200016c57600081600090555060010162000152565b5090565b600060028204905060018216806200018957607f821691505b60208210811415620001a0576200019f620001a6565b5b50919050565b7f4e487b7100000000000000000000000000000000000000000000000000000000600052602260045260246000fd5b61232e80620001e56000396000f3fe608060405234801561001057600080fd5b50600436106100ea5760003560e01c806370a082311161008c578063b88d4fde11610066578063b88d4fde1461025b578063c87b56dd14610277578063d082e381146102a7578063e985e9c5146102c5576100ea565b806370a08231146101f157806395d89b4114610221578063a22cb4651461023f576100ea565b8063095ea7b3116100c8578063095ea7b31461016d57806323b872dd1461018957806342842e0e146101a55780636352211e146101c1576100ea565b806301ffc9a7146100ef57806306fdde031461011f578063081812fc1461013d575b600080fd5b610109600480360381019061010491906116be565b6102f5565b6040516101169190611d36565b60405180910390f35b6101276103d7565b6040516101349190611d51565b60405180910390f35b61015760048036038101906101529190611710565b610469565b6040516101649190611ccf565b60405180910390f35b61018760048036038101906101829190611682565b6104ee565b005b6101a3600480360381019061019e919061157c565b610606565b005b6101bf60048036038101906101ba919061157c565b610666565b005b6101db60048036038101906101d69190611710565b610686565b6040516101e89190611ccf565b60405180910390f35b61020b60048036038101906102069190611517565b610738565b6040516102189190611ef3565b60405180910390f35b6102296107f0565b6040516102369190611d51565b60405180910390f35b61025960048036038101906102549190611646565b610882565b005b610275600480360381019061027091906115cb565b610a03565b005b610291600480360381019061028c9190611710565b610a65565b60405161029e9190611d51565b60405180910390f35b6102af610b0c565b6040516102bc9190611ef3565b60405180910390f35b6102df60048036038101906102da9190611540565b610b12565b6040516102ec9190611d36565b60405180910390f35b60007f80ac58cd000000000000000000000000000000000000000000000000000000007bffffffffffffffffffffffffffffffffffffffffffffffffffffffff1916827bffffffffffffffffffffffffffffffffffffffffffffffffffffffff191614806103c057507f5b5e139f000000000000000000000000000000000000000000000000000000007bffffffffffffffffffffffffffffffffffffffffffffffffffffffff1916827bffffffffffffffffffffffffffffffffffffffffffffffffffffffff1916145b806103d057506103cf82610ba6565b5b9050919050565b6060600080546103e690612123565b80601f016020809104026020016040519081016040528092919081815260200182805461041290612123565b801561045f5780601f106104345761010080835404028352916020019161045f565b820191906000526020600020905b81548152906001019060200180831161044257829003601f168201915b5050505050905090565b600061047482610c10565b6104b3576040517f08c379a00000000000000000000000000000000000000000000000000000000081526004016104aa90611e53565b60405180910390fd5b6004600083815260200190815260200160002060009054906101000a900473ffffffffffffffffffffffffffffffffffffffff169050919050565b60006104f982610686565b90508073ffffffffffffffffffffffffffffffffffffffff168373ffffffffffffffffffffffffffffffffffffffff16141561056a576040517f08c379a000000000000000000000000000000000000000000000000000000000815260040161056190611eb3565b60405180910390fd5b8073ffffffffffffffffffffffffffffffffffffffff16610589610c7c565b73ffffffffffffffffffffffffffffffffffffffff1614806105b857506105b7816105b2610c7c565b610b12565b5b6105f7576040517f08c379a00000000000000000000000000000000000000000000000000000000081526004016105ee90611df3565b60405180910390fd5b6106018383610c84565b505050565b610617610611610c7c565b82610d3d565b610656576040517f08c379a000000000000000000000000000000000000000000000000000000000815260040161064d90611ed3565b60405180910390fd5b610661838383610e1b565b505050565b61068183838360405180602001604052806000815250610a03565b505050565b6000806002600084815260200190815260200160002060009054906101000a900473ffffffffffffffffffffffffffffffffffffffff169050600073ffffffffffffffffffffffffffffffffffffffff168173ffffffffffffffffffffffffffffffffffffffff16141561072f576040517f08c379a000000000000000000000000000000000000000000000000000000000815260040161072690611e33565b60405180910390fd5b80915050919050565b60008073ffffffffffffffffffffffffffffffffffffffff168273ffffffffffffffffffffffffffffffffffffffff1614156107a9576040517f08c379a00000000000000000000000000000000000000000000000000000000081526004016107a090611e13565b60405180910390fd5b600360008373ffffffffffffffffffffffffffffffffffffffff1673ffffffffffffffffffffffffffffffffffffffff168152602001908152602001600020549050919050565b6060600180546107ff90612123565b80601f016020809104026020016040519081016040528092919081815260200182805461082b90612123565b80156108785780601f1061084d57610100808354040283529160200191610878565b820191906000526020600020905b81548152906001019060200180831161085b57829003601f168201915b5050505050905090565b61088a610c7c565b73ffffffffffffffffffffffffffffffffffffffff168273ffffffffffffffffffffffffffffffffffffffff1614156108f8576040517f08c379a00000000000000000000000000000000000000000000000000000000081526004016108ef90611db3565b60405180910390fd5b8060056000610905610c7c565b73ffffffffffffffffffffffffffffffffffffffff1673ffffffffffffffffffffffffffffffffffffffff16815260200190815260200160002060008473ffffffffffffffffffffffffffffffffffffffff1673ffffffffffffffffffffffffffffffffffffffff16815260200190815260200160002060006101000a81548160ff0219169083151502179055508173ffffffffffffffffffffffffffffffffffffffff166109b2610c7c565b73ffffffffffffffffffffffffffffffffffffffff167f17307eab39ab6107e8899845ad3d59bd9653f200f220920489ca2b5937696c31836040516109f79190611d36565b60405180910390a35050565b610a14610a0e610c7c565b83610d3d565b610a53576040517f08c379a0000000000000000000000000000000000000000000000000000000008152600401610a4a90611ed3565b60405180910390fd5b610a5f84848484611077565b50505050565b6060610a7082610c10565b610aaf576040517f08c379a0000000000000000000000000000000000000000000000000000000008152600401610aa690611e93565b60405180910390fd5b6000610ab96110d3565b90506000815111610ad95760405180602001604052806000815250610b04565b80610ae3846110ea565b604051602001610af4929190611cab565b6040516020818303038152906040525b915050919050565b60065481565b6000600560008473ffffffffffffffffffffffffffffffffffffffff1673ffffffffffffffffffffffffffffffffffffffff16815260200190815260200160002060008373ffffffffffffffffffffffffffffffffffffffff1673ffffffffffffffffffffffffffffffffffffffff16815260200190815260200160002060009054906101000a900460ff16905092915050565b60007f01ffc9a7000000000000000000000000000000000000000000000000000000007bffffffffffffffffffffffffffffffffffffffffffffffffffffffff1916827bffffffffffffffffffffffffffffffffffffffffffffffffffffffff1916149050919050565b60008073ffffffffffffffffffffffffffffffffffffffff166002600084815260200190815260200160002060009054906101000a900473ffffffffffffffffffffffffffffffffffffffff1673ffffffffffffffffffffffffffffffffffffffff1614159050919050565b600033905090565b816004600083815260200190815260200160002060006101000a81548173ffffffffffffffffffffffffffffffffffffffff021916908373ffffffffffffffffffffffffffffffffffffffff160217905550808273ffffffffffffffffffffffffffffffffffffffff16610cf783610686565b73ffffffffffffffffffffffffffffffffffffffff167f8c5be1e5ebec7d5bd14f71427d1e84f3dd0314c0f7b2291e5b200ac8c7c3b92560405160405180910390a45050565b6000610d4882610c10565b610d87576040517f08c379a0000000000000000000000000000000000000000000000000000000008152600401610d7e90611dd3565b60405180910390fd5b6000610d9283610686565b90508073ffffffffffffffffffffffffffffffffffffffff168473ffffffffffffffffffffffffffffffffffffffff161480610e0157508373ffffffffffffffffffffffffffffffffffffffff16610de984610469565b73ffffffffffffffffffffffffffffffffffffffff16145b80610e125750610e118185610b12565b5b91505092915050565b8273ffffffffffffffffffffffffffffffffffffffff16610e3b82610686565b73ffffffffffffffffffffffffffffffffffffffff1614610e91576040517f08c379a0000000000000000000000000000000000000000000000000000000008152600401610e8890611e73565b60405180910390fd5b600073ffffffffffffffffffffffffffffffffffffffff168273ffffffffffffffffffffffffffffffffffffffff161415610f01576040517f08c379a0000000000000000000000000000000000000000000000000000000008152600401610ef890611d93565b60405180910390fd5b610f0c838383611297565b610f17600082610c84565b6001600360008573ffffffffffffffffffffffffffffffffffffffff1673ffffffffffffffffffffffffffffffffffffffff1681526020019081526020016000206000828254610f679190612039565b925050819055506001600360008473ffffffffffffffffffffffffffffffffffffffff1673ffffffffffffffffffffffffffffffffffffffff1681526020019081526020016000206000828254610fbe9190611fb2565b92505081905550816002600083815260200190815260200160002060006101000a81548173ffffffffffffffffffffffffffffffffffffffff021916908373ffffffffffffffffffffffffffffffffffffffff160217905550808273ffffffffffffffffffffffffffffffffffffffff168473ffffffffffffffffffffffffffffffffffffffff167fddf252ad1be2c89b69c2b068fc378daa952ba7f163c4a11628f55a4df523b3ef60405160405180910390a4505050565b611082848484610e1b565b61108e8484848461129c565b6110cd576040517f08c379a00000000000000000000000000000000000000000000000000000000081526004016110c490611d73565b60405180910390fd5b50505050565b606060405180602001604052806000815250905090565b60606000821415611132576040518060400160405280600181526020017f30000000000000000000000000000000000000000000000000000000000000008152509050611292565b600082905060005b6000821461116457808061114d90612155565b915050600a8261115d9190612008565b915061113a565b60008167ffffffffffffffff8111156111a6577f4e487b7100000000000000000000000000000000000000000000000000000000600052604160045260246000fd5b6040519080825280601f01601f1916602001820160405280156111d85781602001600182028036833780820191505090505b5090505b6000851461128b576001826111f19190612039565b9150600a85611200919061219e565b603061120c9190611fb2565b60f81b818381518110611248577f4e487b7100000000000000000000000000000000000000000000000000000000600052603260045260246000fd5b60200101907effffffffffffffffffffffffffffffffffffffffffffffffffffffffffffff1916908160001a905350600a856112849190612008565b94506111dc565b8093505050505b919050565b505050565b60006112bd8473ffffffffffffffffffffffffffffffffffffffff16611433565b15611426578373ffffffffffffffffffffffffffffffffffffffff1663150b7a026112e6610c7c565b8786866040518563ffffffff1660e01b81526004016113089493929190611cea565b602060405180830381600087803b15801561132257600080fd5b505af192505050801561135357506040513d601f19601f8201168201806040525081019061135091906116e7565b60015b6113d6573d8060008114611383576040519150601f19603f3d011682016040523d82523d6000602084013e611388565b606091505b506000815114156113ce576040517f08c379a00000000000000000000000000000000000000000000000000000000081526004016113c590611d73565b60405180910390fd5b805181602001fd5b63150b7a0260e01b7bffffffffffffffffffffffffffffffffffffffffffffffffffffffff1916817bffffffffffffffffffffffffffffffffffffffffffffffffffffffff19161491505061142b565b600190505b949350505050565b600080823b905060008111915050919050565b600061145961145484611f3f565b611f0e565b90508281526020810184848401111561147157600080fd5b61147c8482856120e1565b509392505050565b6000813590506114938161229c565b92915050565b6000813590506114a8816122b3565b92915050565b6000813590506114bd816122ca565b92915050565b6000815190506114d2816122ca565b92915050565b600082601f8301126114e957600080fd5b81356114f9848260208601611446565b91505092915050565b600081359050611511816122e1565b92915050565b60006020828403121561152957600080fd5b600061153784828501611484565b91505092915050565b6000806040838503121561155357600080fd5b600061156185828601611484565b925050602061157285828601611484565b9150509250929050565b60008060006060848603121561159157600080fd5b600061159f86828701611484565b93505060206115b086828701611484565b92505060406115c186828701611502565b9150509250925092565b600080600080608085870312156115e157600080fd5b60006115ef87828801611484565b945050602061160087828801611484565b935050604061161187828801611502565b925050606085013567ffffffffffffffff81111561162e57600080fd5b61163a878288016114d8565b91505092959194509250565b6000806040838503121561165957600080fd5b600061166785828601611484565b925050602061167885828601611499565b9150509250929050565b6000806040838503121561169557600080fd5b60006116a385828601611484565b92505060206116b485828601611502565b9150509250929050565b6000602082840312156116d057600080fd5b60006116de848285016114ae565b91505092915050565b6000602082840312156116f957600080fd5b6000611707848285016114c3565b91505092915050565b60006020828403121561172257600080fd5b600061173084828501611502565b91505092915050565b6117428161206d565b82525050565b6117518161207f565b82525050565b600061176282611f6f565b61176c8185611f85565b935061177c8185602086016120f0565b6117858161228b565b840191505092915050565b600061179b82611f7a565b6117a58185611f96565b93506117b58185602086016120f0565b6117be8161228b565b840191505092915050565b60006117d482611f7a565b6117de8185611fa7565b93506117ee8185602086016120f0565b80840191505092915050565b6000611807603283611f96565b91507f4552433732313a207472616e7366657220746f206e6f6e20455243373231526560008301527f63656976657220696d706c656d656e74657200000000000000000000000000006020830152604082019050919050565b600061186d602483611f96565b91507f4552433732313a207472616e7366657220746f20746865207a65726f2061646460008301527f72657373000000000000000000000000000000000000000000000000000000006020830152604082019050919050565b60006118d3601983611f96565b91507f4552433732313a20617070726f766520746f2063616c6c6572000000000000006000830152602082019050919050565b6000611913602c83611f96565b91507f4552433732313a206f70657261746f7220717565727920666f72206e6f6e657860008301527f697374656e7420746f6b656e00000000000000000000000000000000000000006020830152604082019050919050565b6000611979603883611f96565b91507f4552433732313a20617070726f76652063616c6c6572206973206e6f74206f7760008301527f6e6572206e6f7220617070726f76656420666f7220616c6c00000000000000006020830152604082019050919050565b60006119df602a83611f96565b91507f4552433732313a2062616c616e636520717565727920666f7220746865207a6560008301527f726f2061646472657373000000000000000000000000000000000000000000006020830152604082019050919050565b6000611a45602983611f96565b91507f4552433732313a206f776e657220717565727920666f72206e6f6e657869737460008301527f656e7420746f6b656e00000000000000000000000000000000000000000000006020830152604082019050919050565b6000611aab602c83611f96565b91507f4552433732313a20617070726f76656420717565727920666f72206e6f6e657860008301527f697374656e7420746f6b656e00000000000000000000000000000000000000006020830152604082019050919050565b6000611b11602983611f96565b91507f4552433732313a207472616e73666572206f6620746f6b656e2074686174206960008301527f73206e6f74206f776e00000000000000000000000000000000000000000000006020830152604082019050919050565b6000611b77602f83611f96565b91507f4552433732314d657461646174613a2055524920717565727920666f72206e6f60008301527f6e6578697374656e7420746f6b656e00000000000000000000000000000000006020830152604082019050919050565b6000611bdd602183611f96565b91507f4552433732313a20617070726f76616c20746f2063757272656e74206f776e6560008301527f72000000000000000000000000000000000000000000000000000000000000006020830152604082019050919050565b6000611c43603183611f96565b91507f4552433732313a207472616e736665722063616c6c6572206973206e6f74206f60008301527f776e6572206e6f7220617070726f7665640000000000000000000000000000006020830152604082019050919050565b611ca5816120d7565b82525050565b6000611cb782856117c9565b9150611cc382846117c9565b91508190509392505050565b6000602082019050611ce46000830184611739565b92915050565b6000608082019050611cff6000830187611739565b611d0c6020830186611739565b611d196040830185611c9c565b8181036060830152611d2b8184611757565b905095945050505050565b6000602082019050611d4b6000830184611748565b92915050565b60006020820190508181036000830152611d6b8184611790565b905092915050565b60006020820190508181036000830152611d8c816117fa565b9050919050565b60006020820190508181036000830152611dac81611860565b9050919050565b60006020820190508181036000830152611dcc816118c6565b9050919050565b60006020820190508181036000830152611dec81611906565b9050919050565b60006020820190508181036000830152611e0c8161196c565b9050919050565b60006020820190508181036000830152611e2c816119d2565b9050919050565b60006020820190508181036000830152611e4c81611a38565b9050919050565b60006020820190508181036000830152611e6c81611a9e565b9050919050565b60006020820190508181036000830152611e8c81611b04565b9050919050565b60006020820190508181036000830152611eac81611b6a565b9050919050565b60006020820190508181036000830152611ecc81611bd0565b9050919050565b60006020820190508181036000830152611eec81611c36565b9050919050565b6000602082019050611f086000830184611c9c565b92915050565b6000604051905081810181811067ffffffffffffffff82111715611f3557611f3461225c565b5b8060405250919050565b600067ffffffffffffffff821115611f5a57611f5961225c565b5b601f19601f8301169050602081019050919050565b600081519050919050565b600081519050919050565b600082825260208201905092915050565b600082825260208201905092915050565b600081905092915050565b6000611fbd826120d7565b9150611fc8836120d7565b9250827fffffffffffffffffffffffffffffffffffffffffffffffffffffffffffffffff03821115611ffd57611ffc6121cf565b5b828201905092915050565b6000612013826120d7565b915061201e836120d7565b92508261202e5761202d6121fe565b5b828204905092915050565b6000612044826120d7565b915061204f836120d7565b925082821015612062576120616121cf565b5b828203905092915050565b6000612078826120b7565b9050919050565b60008115159050919050565b60007fffffffff0000000000000000000000000000000000000000000000000000000082169050919050565b600073ffffffffffffffffffffffffffffffffffffffff82169050919050565b6000819050919050565b82818337600083830152505050565b60005b8381101561210e5780820151818401526020810190506120f3565b8381111561211d576000848401525b50505050565b6000600282049050600182168061213b57607f821691505b6020821081141561214f5761214e61222d565b5b50919050565b6000612160826120d7565b91507fffffffffffffffffffffffffffffffffffffffffffffffffffffffffffffffff821415612193576121926121cf565b5b600182019050919050565b60006121a9826120d7565b91506121b4836120d7565b9250826121c4576121c36121fe565b5b828206905092915050565b7f4e487b7100000000000000000000000000000000000000000000000000000000600052601160045260246000fd5b7f4e487b7100000000000000000000000000000000000000000000000000000000600052601260045260246000fd5b7f4e487b7100000000000000000000000000000000000000000000000000000000600052602260045260246000fd5b7f4e487b7100000000000000000000000000000000000000000000000000000000600052604160045260246000fd5b6000601f19601f8301169050919050565b6122a58161206d565b81146122b057600080fd5b50565b6122bc8161207f565b81146122c757600080fd5b50565b6122d38161208b565b81146122de57600080fd5b50565b6122ea816120d7565b81146122f557600080fd5b5056fea2646970667358221220de431e2646330d42533fda70d8e6d4a27364e70068f79158316af9891944a46464736f6c63430008000033",
  "immutableReferences": {},
  "source": "// SPDX-License-Identifier: MIT\r\npragma solidity 0.8.0;\r\n\r\nimport \"@openzeppelin/contracts/token/ERC721/ERC721.sol\";\r\n\r\ncontract Humanitweet is ERC721 {\r\n\r\n    uint256 public tokenCounter;\r\n    constructor() public ERC721(\"Humaniwteet\", \"HTW\") {\r\n        tokenCounter = 0;\r\n    }\r\n}",
  "sourcePath": "E:/Code/Repos/JuanuMusic/humanitweet/humanitweet-contracts/contracts/Humanitweet.sol",
  "compiler": {
    "name": "solc",
    "version": "0.8.0+commit.c7dfd78e.Emscripten.clang"
  },
  "schemaVersion": "3.3.4",
  "updatedAt": "2021-05-23T16:00:40.679Z",
  "devdoc": {
    "kind": "dev",
    "methods": {
      "approve(address,uint256)": {
        "details": "See {IERC721-approve}."
      },
      "balanceOf(address)": {
        "details": "See {IERC721-balanceOf}."
      },
      "getApproved(uint256)": {
        "details": "See {IERC721-getApproved}."
      },
      "isApprovedForAll(address,address)": {
        "details": "See {IERC721-isApprovedForAll}."
      },
      "name()": {
        "details": "See {IERC721Metadata-name}."
      },
      "ownerOf(uint256)": {
        "details": "See {IERC721-ownerOf}."
      },
      "safeTransferFrom(address,address,uint256)": {
        "details": "See {IERC721-safeTransferFrom}."
      },
      "safeTransferFrom(address,address,uint256,bytes)": {
        "details": "See {IERC721-safeTransferFrom}."
      },
      "setApprovalForAll(address,bool)": {
        "details": "See {IERC721-setApprovalForAll}."
      },
      "supportsInterface(bytes4)": {
        "details": "See {IERC165-supportsInterface}."
      },
      "symbol()": {
        "details": "See {IERC721Metadata-symbol}."
      },
      "tokenURI(uint256)": {
        "details": "See {IERC721Metadata-tokenURI}."
      },
      "transferFrom(address,address,uint256)": {
        "details": "See {IERC721-transferFrom}."
      }
    },
    "version": 1
  },
  "userdoc": {
    "kind": "user",
    "methods": {},
    "version": 1
  }
}